:020000040800F2
:1000000060530020891F00085103000853030008B3
:10001000570300085B0300085F03000800000000AE
:100020000000000000000000000000006303000862
:10003000650300080000000057E400088944000838
:10004000A31F0008A31F0008A31F0008A31F000888
:10005000A31F0008A31F0008A31F0008A31F000878
:10006000A31F0008A31F0008A31F0008A31F000868
:10007000A31F0008A31F0008A31F0008A31F000858
:10008000A31F0008A31F0008A31F0008A31F000848
:10009000FB0A0008A31F0008A31F0008A31F0008F5
:1000A000A31F0008A31F0008A31F0008A31F000828
:1000B000A31F0008D1020008A31F0008A31F000807
:1000C000A31F0008A31F0008A31F0008A31F000808
:1000D000A31F000875460008A31F0008A31F0008FF
:1000E000A31F0008A31F0008A31F0008A31F0008E8
:1000F000A31F0008A31F0008A31F0008A31F0008D8
:10010000A31F0008A31F0008A31F0008A31F0008C7
:10011000A31F0008A31F0008A31F0008A31F0008B7
:10012000A31F0008A31F0008A31F0008A31F0008A7
:10013000A31F0008A31F0008A31F0008A31F000897
:10014000BD070008A31F0008A31F0008A31F000885
:10015000A31F0008A31F0008A31F0008A31F000877
:10016000A31F0008A31F0008A31F0008A31F000867
:10017000A31F0008A31F0008A31F0008A31F000857
:10018000A31F0008A31F0008DFF80CD00EF00AF927
:10019000004800479D0100086053002010B58AB058
:1001A0000024A82004F07CF94FF4FA6004F0D1F99F
:1001B0004FF4A06001F0FAFE4FF4E13004F004FACD
:1001C00000F0E8F900F072FD01F0A0F801F0AEF9DE
:1001D000532140F2CF7001F077F90020032306226B
:1001E0000521009000F0F4F909A806F0C1F800BF5D
:1001F00000BF00BF04F022FC044600BF00BF2C4833
:100200000078401C2A49087000BF00BF204604F057
:1002100019FC00BF00BF00BF09A8032100220592FE
:10022000CDE90621089010464FF400713322214B8E
:10023000CDE90132CDE90310042000231E4A1FA19D
:10024000009021480AF006FE00BF00BF00BF04F086
:10025000F5FB044600BF00BF15480078401E144956
:10026000087008460078A0B918480088002809DD01
:1002700000BF00BF204604F0E5FB00BF00BF06F052
:1002800089FE0DE000BF00BF204604F0DBFB00BF8D
:1002900006E000BF00BF204604F0D4FB00BF00BF53
:1002A00000BF09A806F02DFB00200AB010BD000019
:1002B000DC00002080080020391D00087374617282
:1002C00074207461736B0000802A0020A00000205D
:1002D00008B506F0E3F80121234803F0D6FF012812
:1002E00033D122480078401E204908702048007809
:1002F000401E1F4908701F480078401E1D490870A5
:100300001A48007838B96A4600211B480AF0ABF851
:100310000420164908701648007838B96A4600214A
:1003200016480AF0A0F80220114908701148007818
:1003300038B96A46002112480AF095F805200D499F
:1003400008700121084803F0B1FF06F0B8F808BDB5
:10035000704700BFFEE700BFFEE700BFFEE700BF3B
:10036000FEE77047704700000004004000000020D6
:100370000100002002000020542E00207C2E0020CE
:10038000A42E00200CB50020019000907648006853
:1003900040F480307449086000BF7348006800F47E
:1003A000003000900198401C0190009818B9019805
:1003B000B0F5A04FF1D16C48006800F4003010B1E6
:1003C0000120009001E0002000900098012846D113
:1003D00065484030006840F0805063494031086013
:1003E0006248006840F44040604908605E48083058
:1003F00000685D49083108600846006840F4004024
:1004000008600846006840F4A05008605848091F7A
:100410000860081F006840F08070091F086000BF76
:100420005148006800F000700028F9D040F20570D3
:10043000504908604C480830006820F003004A49E1
:10044000083108600846006840F00200086000BFFC
:1004500045480830006800F00C000828F8D10CBDB1
:1004600010B54548006840F47000434908603E48B4
:10047000006840F001003C49086000203A4908311A
:100480000860394800683D490840374908603C48E1
:10049000091D0860081F006820F48020091F0860FB
:1004A000002031490C310860FFF76CFF4FF000600D
:1004B00031498039086010BD70B500200022022348
:1004C00000240221284D08352D6805F00C0020B1CC
:1004D000042806D0082834D107E02A4D2A4E35607A
:1004E00033E02A4D284E35602FE01F4D2D1D2D681D
:1004F000C5F380541C4D2D1D2D6805F03F0154B1EE
:10050000224DB5FBF1F5184E361D3668C6F3881638
:1005100005FB06F209E01B4DB5FBF1F5124E361D49
:100520003668C6F3881605FB06F20F4D2D1D2D68A3
:10053000C5F301456D1C6B00B2FBF3F5124E35603F
:1005400003E0104D104E356000BF00BF064D08356A
:100550002D68C5F303150E4E705D0B4D2D68C5401B
:10056000094E356070BD0000003802400070004048
:1005700008544007003C024088ED00E0FFFFF6FE13
:10058000103000240024F4000400002000127A003F
:10059000080000201CB50121042002F09BF8302047
:1005A000009001208DF8040000208DF806008DF8E1
:1005B000070003208DF805006946044801F0ECFDB2
:1005C0003021024801F066FE1CBD00000008024018
:1005D0002DE9F0418AB004460D4616461F46DDF867
:1005E00040800121084602F075F80121480602F01A
:1005F000BAF84FF4C050089002208DF82400002073
:100600008DF8260003208DF8250001208DF82700A5
:1006100008A9FE4801F0C0FD09220B21FB4801F0AA
:1006200046FE09220C21F94801F041FE00208DF818
:100630001A008DF81B008DF81C0001208DF81D009C
:1006400000208DF81E008DF81F008DF816808DF8A3
:1006500017408DF818608DF81950ADF8147005A981
:10066000EB4802F0CEFB00208DF80E008DF80F0055
:1006700001208DF8100044F22000ADF804000020A5
:10068000ADF80600ADF80800ADF80A00ADF80C00B2
:1006900001208DF8110001A802F03DFC0122022189
:1006A000DB4802F037FF14208DF8000001208DF8A0
:1006B000010000208DF8020001208DF8030068463B
:1006C00001F079FC0121022002F004F801218806E2
:1006D00002F049F84FF44050089002208DF82400B1
:1006E00000208DF8260002208DF8250001208DF8CD
:1006F000270008A9C74801F04FFD09220C21C54871
:1007000001F0D5FD09220D21C24801F0D0FD05A858
:1007100002F082FC00208DF81A008DF81B008DF885
:100720001C0001208DF81D0000208DF81E008DF8A2
:100730001F008DF816008DF8170002208DF81800A4
:100740008DF819000620ADF8140005A9B24802F092
:1007500058FB08B900BFFEE70E208DF80E00002000
:100760008DF80F0001208DF810000020ADF8040076
:10077000ADF80600ADF80800ADF80A00ADF80C00C1
:1007800001208DF8110001A802F0C5FB0122022111
:10079000A14802F0BFFE40208DF8000001208DF836
:1007A000010000208DF8020001208DF8030068464A
:1007B00001F001FC00200AB0BDE8F08110B5002472
:1007C00005F06CFE954A0021934802F088FD93489D
:1007D0000068A0F2012070B1042802D005280FD1D2
:1007E00004E08E480078401FC4B209E08B480078CE
:1007F000401FC4B204E089480078401CC4B200BF66
:1008000000BF8748006888B18448006840F205212D
:1008100088420BD18148007B8049C97A40EA012097
:100820008049488200207E49086029E07E480068AF
:1008300088B17A48006840F2062188420BD1774897
:10084000007B7649C97A40EA01217648418500203B
:100850007549086014E07548006888B16F48006801
:1008600040F2012188420BD16C48007B6B49C97A68
:1008700040EA01216B48A0F8421000206B49086053
:1008800066480068B0F5007F7ED964480068B0F51E
:10089000027F79D26148008804EB4401614A22F862
:1008A000310004EB4400114601EBC000808804EBEA
:1008B000440102EBC10188825848007B5749C97A3C
:1008C00040EA012004EB440102EBC1018880534857
:1008D000817B407B41EA002000B204EB440102EB43
:1008E000C101C8804D48017CC07B41EA002000B2B4
:1008F00004EB440102EBC10108814848407C04EB51
:10090000440102EBC101887204EB4400114601EB83
:10091000C000808804EB440102EBC101898A401ABF
:10092000B0F5805F0DDD04EB4400114601EBC00023
:10093000008A401E00B204EB440102EBC1010882B0
:100940001CE004EB4400374901EBC000808804EB55
:100950004401344A02EBC101898A401A10F5805FD4
:100960000CDA04EB4400114601EBC000008A401C85
:1009700000B204EB440102EBC10108822C4800687C
:1009800068B12648006800E05DE040F20521884239
:1009900005D1002023490882254908601FE0254829
:1009A000006860B11D48006840F20621884206D107
:1009B00000211C48018500201E4908600FE01E48E8
:1009C000006860B11548006840F20121884206D1F4
:1009D00000211448A0F8401000201749086004EBDB
:1009E0004400104901EBC000818804EB44000D4A2B
:1009F00002EBC000B0F9100001EB403004EB440101
:100A000002EBC101498A401A18E0000000000240D0
:100A100000640040000402400068004054010020CF
:100A200018000020680100201C0000202000002089
:100A300024000020280000202C00002004EB4401AA
:100A400002EBC101C86005F03AFD10BD2DE9FC477D
:100A500081460D4616461F46DDF828A00024B9F150
:100A6000000F02D140F2FF1001E04FF400708949FD
:100A7000086000200872487208208872280A8DF8E1
:100A80000000E8B28DF80100300A8DF80200F0B2E3
:100A90008DF80300380A8DF80400F8B28DF80500CF
:100AA0004FEA1A208DF806000AF0FF008DF80700C3
:100AB000002405E01DF8041076480B300155641C35
:100AC000082CF7DB7349744802F014FB80460024BD
:100AD00000E0641C08F0FF016F4802F0A3FB18B9A6
:100AE00040F6FF708442F4DB40F6FF70844202DB84
:100AF0000120BDE8FC870020FBE710B5022405F0CB
:100B0000CDFC664A0021664802F0E9FB63480068B4
:100B1000B0F5807F04D0A0F20110002826D126E095
:100B200000244FF480705F4901EB041108805B489A
:100B3000C17A007B081A5B4901EB0411496808443B
:100B4000584901EB041148605448417B807B081AE6
:100B5000544901EB041189680844524901EB04111E
:100B6000886000204F4901EB0411087358E001240C
:100B700040F201104B4901EB041108804748C07A4C
:100B8000484901EB041108734448C07A20B1012898
:100B900003D0032842D10FE040E04FF47A6041498E
:100BA00001EB0411486000203E4901EB041188600C
:100BB00001203D49086031E03848007BA0B9374842
:100BC000417B807B00EB800001EB40013348C07B20
:100BD00000EBC00202EB001001EB800000B23149D3
:100BE00001EB0411C88118E02C48007B012814D1C6
:100BF0002A48417B807B00EB800001EB40012748C5
:100C0000C07B00EBC00202EB001001EB8000404211
:100C100000B2244901EB0411C88100BF00BF00BF2E
:100C200000BF05F04CFC10BD2DE9F04106460F4613
:100C300000250EB9072000E00820164908600020B2
:100C400008724872082088720020C872002111487A
:100C50000173417381730121C17301744174817403
:100C600001460F4802F046FA0446002500E06D1CDC
:100C7000E1B20B4802F0D6FA18B940F6FF7085428F
:100C8000F5DB40F6FF70854202DB0120BDE8F08114
:100C90000020FBE7400100200068004054010020D4
:100CA00000640040100200203C0000201CB501211F
:100CB000022001F00FFD0320009000208DF80400B9
:100CC00003208DF8050001208DF8070069461C48B7
:100CD00001F062FA1CBD10B5044614B10120194997
:100CE000087018480078D0B10121154801F0B6FA13
:100CF00020B10221124801F0B1FA80B90020114957
:100D0000087001210E4801F0A9FA08B9012010BDB0
:100D100002210B4801F0A2FA78B90220F7E701217D
:100D2000074801F09BFA012807D10221044801F08D
:100D300095FA012801D1034908700020E7E7000077
:100D4000000402403000002080ED040AC0ED050AD6
:100D500080ED061A02EE902AF8EE622AC0ED0A2A09
:100D600002EE901AF8EE622AC0ED0B2AC0ED0C1AC2
:100D700080ED0D2A704780ED000A70479FEDFE0A56
:100D800080ED000A9FEDFD0B80ED020B9FEDFA0A4E
:100D900080ED040A9FEDF80A80ED050A9FEDF60A42
:100DA00080ED060A9FEDF40A80ED070A9FEDF20A36
:100DB00080ED080A9FEDF00A80ED0A0A9FEDEE0A29
:100DC00080ED0B0A9FEDEC0A80ED0C0A9FEDEA0A1C
:100DD00080ED0D0A704770B52DED0E8B04460D4663
:100DE000D4ED000A00EE105AB8EEC00A30EEC00A88
:100DF000B0EE408A94ED0A0AF7EE000AB4EE600AFB
:100E0000F1EE10FA7DD194ED0D0A10EE101A08469D
:100E10000DF059F941EC190B18EE100A0DF053F9C9
:100E200041EC1B0BB0EE4B0AF0EE6B0A0DF05EFBD3
:100E3000B0EE40AAF0EE60AA53EC192B51EC1A0B5D
:100E40000DF06CF97DD994ED0B0AF7EE000AB4EEC3
:100E5000600AF1EE10FA75D194ED0C0A10EE101A3A
:100E600008460DF030F941EC190B94ED021BB0EE81
:100E7000410AF0EE610A0DF039FBB0EE40AAF0EE47
:100E800060AA53EC192B51EC1A0B0DF047F918D846
:100E900018EE100A0DF017F941EC1A0B94ED021B35
:100EA000B0EE410AF0EE610A53EC102B0DF07AF827
:100EB00041EC190B9FEDB10B53EC102B0DF02EF9FB
:100EC0003FD318EE100A0DF0FEF841EC190B94ED2B
:100ED000021BB0EE410AF0EE610A53EC102B0CF04D
:100EE000BAFFC4E9020194ED0C0A10EE101A08468C
:100EF0000DF0E9F841EC190B94ED021BB0EE410A3C
:100F000000E059E0F0EE610A0DF0F0FAB0EE40AA10
:100F1000F0EE60AA53EC192B51EC1A0B0DF0FEF811
:100F20000FD294ED021BB0EE410AF0EE610A9FED84
:100F3000931B53EC112B51EC100B0DF0D7F80FD283
:100F400001E0DBE025E094ED0C0AFFEE000A20EE64
:100F5000200A10EE101A08460DF0B5F8C4E9020197
:100F600094ED021BB0EE410AF0EE610A9FED831B87
:100F700053EC112B51EC100B0DF0D0F8D0D294EDB6
:100F80000C0A10EE101A08460DF09DF8C4E9020193
:100F9000C7E018EE100A0DF096F841EC190B94ED2D
:100FA000021BB0EE410AF0EE610A53EC102B0CF07C
:100FB00052FFC4E90201B4E094ED0B0AF7EE000A17
:100FC000B4EE600AF1EE10FA7DD194ED0C0A10EE49
:100FD000101A08460DF077F841EC190B94ED021B3E
:100FE000B0EE410AF0EE610A0DF080FAB0EE40AAD0
:100FF000F0EE60AA53EC192B51EC1A0B0DF08EF8A1
:1010000018D818EE100A0DF05EF841EC1A0B94EDAA
:10101000021BB0EE410AF0EE610A53EC102B0CF00B
:10102000C1FF41EC190B9FED550B53EC102B0DF04C
:1010300075F876D318EE100A0DF045F841EC190B4F
:1010400094ED021BB0EE410AF0EE610A53EC102B56
:101050000CF001FFC4E9020194ED0C0A10EE101A25
:1010600008460DF030F841EC190B94ED021BB0EE80
:10107000410AF0EE610A0DF039FAB0EE40AAF0EE46
:1010800060AA53EC192B51EC1A0B0DF047F848D21B
:1010900094ED021BB0EE410AF0EE610A9FED371BA2
:1010A00053EC112B51EC100B0DF020F80ED294EDF7
:1010B0000C0AFFEE000A20EE200A10EE101A084675
:1010C0000DF001F800E01AE0C4E9020194ED021B02
:1010D000B0EE410AF0EE610A9FED281B53EC112B94
:1010E00051EC100B0DF01AF81BD294ED0C0A10EE17
:1010F000101A08460CF0E7FFC4E9020111E018EEEF
:10110000100A0CF0E0FF41EC190B94ED021BB0EE5D
:10111000410AF0EE610A53EC102B0CF09CFEC4E97E
:10112000020194ED070A78EE408A84ED078A94ED77
:10113000060A20EE280A10EE101A08460CF0C3FF2B
:1011400041EC1A0B94ED050A10EE101A08460CF04B
:10115000BAFF41EC1E0B94ED021BB0EE410AF0EE1B
:10116000610A53EC102B0CF01DFF41EC1C0B94EDAD
:10117000040A20EE080A05E000000000000000005C
:101180000000000010EE101A08460CF09CFF41EC25
:101190001D0B53EC1C2B0CF05EFE41EC1B0B53ECB7
:1011A0001A2B0CF058FE41EC190B0CF06DFF00EE01
:1011B000100AB8EEC00AD4ED090A30EE200A84ED18
:1011C000090AD4ED090AAD48008800EE100AB8EE0D
:1011D000400AF4EEC00AF1EE10FA08DDA7480088D4
:1011E00000EE100AB8EE400A84ED090A16E0D4EDCC
:1011F000090AA2480088404200EE100AB8EEC00A70
:10120000F4EEC00AF1EE10FA08D29C480088404281
:1012100000EE100AB8EEC00A84ED090A94ED090A3E
:10122000BDEEC00A10EE100ABDEC0E8B70BD01467B
:10123000B0EE401AD1ED002A72EEC12AB0EE620A79
:10124000D1ED072A70EE622AF0EE621AF0EE400A43
:1012500091ED073AF0EE003AF0EE402A43EEC32A51
:1012600091ED083A72EE832AB0EE622A81ED070A08
:10127000D1ED072AC1ED082AD1ED042A62EEA12A98
:1012800091ED053A43EE202A91ED063A43EE022A0B
:10129000FDEEE22AF8EEE22A91ED093A72EE832A97
:1012A000C1ED092A91ED093A7448008802EE900ACE
:1012B000F8EE622AB4EEE23AF1EE10FA08DD6F4879
:1012C000008802EE900AF8EE622AC1ED092A16E0C3
:1012D00091ED093A69480088404202EE900AF8EE22
:1012E000E22AB4EEE23AF1EE10FA08D2634800883E
:1012F000404202EE900AF8EEE22AC1ED092AD1ED51
:10130000092AFDEEE22A12EE900A704700B500238A
:10131000AFE0C3EBC3015A4A02EBC100FFF72EFD59
:10132000C3EBC301574A02EBC100FFF727FDC3EB34
:10133000C301554A02EBC100FFF720FDC3EBC30117
:10134000524A02EBC100FFF719FDC3EBC301504A3B
:1013500002EBC100FFF712FDC3EBC3014D4A02EBE4
:10136000C100FFF70BFDC3EBC301454A02EBC1000F
:101370001FED7F2A00225FED801A11461FED821AB1
:10138000DFED450AB1EE0E0AFFF7DEFCC3EBC30149
:101390003F4A02EBC1001FED882A00225FED8A1A46
:1013A00011461FED8B1ADFED3D0A9FED3D0AFFF759
:1013B000CBFCC3EBC301334A02EBC1001FED922A01
:1013C00000225FED931A11461FED951AF2EE040A02
:1013D000B3EE040AFFF7B8FCC3EBC3012A4A02EBE1
:1013E000C1009FED302A0022DFED2F1A11461FEDBC
:1013F0009E1ADFED2E0A9FED2E0AFFF7A5FCC3EB28
:10140000C3012C4A02EBC1009FED2B2A0022DFED25
:101410002B1A01211FEDA81ADFED290AB2EE040AEA
:10142000FFF792FCC3EBC301184A02EBC1009FED2A
:10143000222A0022DFED211A01211FEDB11ADFED72
:10144000200AB2EE040AFFF77FFCC3EBC301114A86
:1014500002EBC1009FED182A0022DFED131A11469E
:101460001FEDBB1A5FEDBC0A9FED160AFFF76CFC7F
:101470005B1C042BFFF64DAF00BD000032000020C6
:101480003002002010030020F0030020D0040020D0
:1014900090060020700700200AD7A33B0AD7233C00
:1014A000CDCCCC3D00409C4500007A456666663F49
:1014B00000002042B005002000007A440080BB45B7
:1014C000295C8F3D5C8F423E7FB505460C4601216D
:1014D000022001F048F90295ADF804400020ADF873
:1014E0000600ADF80C0001A90F4802F016FA01221F
:1014F00011460D4802F0B2FE01210B4802F0D6FE63
:101500000121094802F092FA1D208DF80000002008
:101510008DF8010001208DF802008DF80300684667
:1015200000F049FD7FBD000000040040002000BF26
:1015300033E0002100EB4002CE4B23F8321000EBE9
:10154000400203EBC202918000EB400203EBC202B7
:10155000D18000EB400203EBC202518000EB40025D
:1015600003EBC202917200EB400203EBC202118155
:1015700000EB400203EBC202D16000EB400203EB40
:10158000C202118200EB400203EBC202518200EB67
:10159000400203EBC2029182401C0428C9DB704761
:1015A000002000BF15E00021B34A02EB00121180B9
:1015B000B14A02EB00125160AF4A02EB0012916097
:1015C000AD4A02EB0012D181AB4A02EB001211735B
:1015D000401C0228E7DB704770B52DED048B84B00A
:1015E0000546F0EE409AB0EE608AF0EE418AB0EE29
:1015F000619A00240026B0EE690AA048FFF7BBFB01
:10160000B0EE480A9D483830FFF7B5FBB0EE680AE7
:101610009A487030FFF7AFFBB0EE490A9748A83000
:10162000FFF7A9FBB5F9360000EE900AF8EEE00AE4
:10163000B0EE600A9148FFF7FAFD00B2ADF808007D
:1016400002A830F91400B0F57A5F05DD4FF47A5046
:1016500002A921F814000AE002A830F9140010F5DC
:101660007A5F04DA4CF2801002A921F814000020FD
:101670000090BDF90810034602460120FFF7E6F985
:101680000646304604B0BDEC048B70BD70B52DED40
:10169000048B84B00546F0EE409AB0EE608AF0EE1E
:1016A000418AB0EE619A01260024B0EE690A7448BE
:1016B000FFF761FBB0EE480A71483830FFF75BFB7B
:1016C000B0EE680A6E487030FFF755FBB0EE490A7D
:1016D0006B48A830FFF74FFB00BF35E004EB440137
:1016E00005EBC101898800EE901AF8EE600AB0EEB1
:1016F000600AC4EBC401624A02EBC100FFF797FD28
:1017000000B202A921F8140002A830F9140047F22F
:101710003051884204DD084602A921F814000AE08D
:1017200002A830F914005749884204DA48F6D0205C
:1017300002A921F8140002A830F8140004EB4401B7
:1017400005EBC1014880641C042CC7DBB5F94A00D5
:101750000090B5F93230B5F91A20B5F90210002021
:10176000FFF774F90646304604B0BDEC048B70BD3B
:101770002DE9F04F2DED028B85B004460F469146C2
:101780009846DDF840A0002008EE100A00250190E0
:101790000290039004904FF0010B002609EB4730B4
:1017A00008EE100A0AEB4835B8EEC80A3648FFF7CB
:1017B000E2FA00EE105AB8EEC00A3448FFF7DBFA3E
:1017C00000EE105AB8EEC00A3148FFF7D4FAD4ED53
:1017D000030AF8EEE00AB0EE600A2B48FFF727FD97
:1017E0000190E068A8420ADAD4ED090AF8EEE00AAE
:1017F000B0EE600A2548FFF71AFD02900CE0E068A1
:10180000A84209DBD4ED090AF8EEE00AB0EE600A5E
:101810001F48FFF70CFD0290002616E001A850F8C3
:10182000260043F69821884204DD084601A941F8C4
:10183000260009E001A850F826001649884203DA7C
:10184000084601A941F82600761C042EE6DB049820
:1018500000B20090039803B2029802B2019801B25C
:101860000020FFF7F3F88346584605B0BDEC028B25
:10187000BDE8F08F68010020100200203002002037
:1018800010030020D08AFFFFF0030020080500208D
:10189000E805002068C5FFFF1CB50027B8464FF4D7
:1018A0007A6500264FF000094FF0000A4FF0000B58
:1018B000002400BFFE48B0F90000FE49C860FE48A1
:1018C000B0F90010FB484162C0E0FC48007F18B14D
:1018D000032804D1804602E04FF0010800BF00BF9A
:1018E00001A800231A4619460090F54808F07EFB2F
:1018F000F4480068002875D1F3480068012871D1C8
:10190000B8F1030F36D0ED48406841F6C81188425F
:1019100002DD0846E9494860E848806841F2D47130
:10192000884202DD0846E5498860E44840680028AE
:1019300002DA0020E1494860E0488068002802DAC5
:101940000020DE498860DD48808800B2D8490880E0
:10195000DA48008900B2D84908800846B0F900008A
:1019600000230090D248B0F900201946D148FFF773
:10197000FFFE6BE0B8F1030F68D19FEDD40AD448A5
:10198000FFF7F9F9CD48B0F91EB05946D048FFF736
:1019900022FA0446C94840686142441841F6C8101A
:1019A000844200DD0446002C00DA0024C34880682D
:1019B00041F2D471884202DD0846C0498860BF48C0
:1019C0008068002802DA0020BC498860BB48008992
:1019D00000B2002322B219460090B648FFF7C8FEB5
:1019E00034E0FFE7B7480068012824D1B648006812
:1019F000012820D130B200232AB219460090AD4808
:101A0000FFF7B6FEAB48C068A0EB0509A948406ADD
:101A1000A0EB060AB9F1320F06DABAF1320F03DA97
:101A20000120A94908607F1C642F0FDD0020A64912
:101A3000086000270AE0A448006838B930B20023E3
:101A40002AB2194600909B48FFF792FE3DE72DED24
:101A5000048B82B001260024322544F6206008EE73
:101A6000100A9C4808EE900A42F2107009EE100A23
:101A700000219048C18600BF9048007F012801D115
:101A8000944900E000218B48C16385E08B48007FCA
:101A9000012802D0032808D103E001208E49086004
:101AA00003E000208C49086000BF00BF8A4800683E
:101AB00001283AD1834908608348006858BBAC428A
:101AC00006DA9FED860A8648FFF755F9641C37E071
:101AD0006800A04208DDAC4206DBB8EEE80A8048A8
:101AE000FFF749F9641C2BE06800A04228DCB8EE3F
:101AF000C90A7B48FFF73FF9641C05EB4500A0428B
:101B00001EDA00240020744908606E490860002134
:101B10006A48017714E06C480068012810D1B8EEDB
:101B2000C80A6F48FFF727F90AE06B48006838B920
:101B3000B8EEC80A6A48FFF71EF90120624908603A
:101B40005C48D0ED0F0AF8EEE00AB0EE600A644897
:101B5000FFF76DFB00EE100AB8EEC00A614880ED99
:101B6000000A012601A800231A46194600905E4883
:101B700008F03CFA0EE05B48D0ED000AB0EE600AD7
:101B8000DFED521A9FED511ADFED500A4948FFF779
:101B900023FD0646002EEED178E71CB50025012670
:101BA00000BF01A951480AF0CAFC002416E09FEDCD
:101BB000500A504800EB840080ED000A4D4800EBCD
:101BC000840090ED000ABCEEC00A10EE100A04EB8F
:101BD0004401384A02EBC1018880641C042CE6DB16
:101BE00037E0012601A800231A4619460090344820
:101BF00008F0FCF90020FFF76EF80546012D09D129
:101C00003C4890ED000ADFED3C0A30EE200A80ED02
:101C1000000A06E0022D04D19FED2C0A354880ED24
:101C2000000A14E0334890ED032AF0EE421A90EDDA
:101C3000022AB0EE421A90ED012AF0EE420A90ED2F
:101C4000002AB0EE420A1B48FFF720FD0646002E90
:101C5000E8D1C6E72DED028B8CB000BF6BE02748C2
:101C60000068C0432649C1F89002224890ED010A5D
:101C700010EE101A08460CF026FA41EC180B214819
:101C800000880A908DED088B0A48B0F928000949B0
:101C9000496A084A528D074B9B8DCDE90332CDE945
:101CA00005100448B0F92000024991F822102BE0F9
:101CB000440000206801002046000020100200209F
:101CC0007C2E00203400002038000020000000009E
:101CD00070070020187301003C00002000401C46E3
:101CE0009006002050080020542E0020082C0020D0
:101CF00000803B45600800200000C842900241423D
:101D000000004142F0000020714AB2F91E20CDE9E6
:101D1000002102906E48838B028BB0F91A106DA0DF
:101D20000CF0D4FB0BA800210A230A46CDE90010D1
:101D300008460BF02AF892E730B58BB00446002530
:101D400000BF02F043FD0AA808F0ADFC0AAA012179
:101D5000084604F036FD00BF00BF00BF02F06EFE73
:101D6000054600BF00BF65480078401C6349087005
:101D700000BF00BF284602F065FE00BF00BF00BFE5
:101D80000AAB01225EA1614808F001F80AAB01220A
:101D90005FA1624807F0FBFF0AAB012260A1634824
:101DA00007F0F5FF0AA8032100220592CDE90621DC
:101DB0000890104680210C225D4BCDE90132CDE91F
:101DC000031003200023AFF273125AA100905C4865
:101DD00009F040F80AA8032100220592CDE9062166
:101DE000089010464FF400713322564BCDE9013272
:101DF000CDE9031002200023AFF2612252A100902E
:101E0000544809F027F80AA8032100220592CDE9D9
:101E10000621089010464FF4007133224E4BCDE955
:101E20000132CDE9031001200023AFF2DD324BA1D6
:101E300000904D4809F00EF80AA8032100220592EF
:101E4000CDE90621089010464FF400713322474B2C
:101E5000CDE90132CDE9031001200023AFF2C752D2
:101E600043A10090454808F0F5FF0AA944480AF04C
:101E700066FB00BF00BF00BF02F0E0FD054600BFEB
:101E800000BF1E480078401E1C49087008460078B4
:101E9000A0B93C480088002809DD00BF00BF2846E3
:101EA00002F0D0FD00BF00BF05F074F80DE000BFE8
:101EB00000BF284602F0C6FD00BF06E000BF00BF1D
:101EC000284602F0BFFD00BF00BF00BF0BB030BD11
:101ED0006801002025642C25642C25642C25642CA5
:101EE00025642C25642C25642C25642C25642C2544
:101EF000642C25662C25640D0A000000DC000020FF
:101F000053504545445F53454D000000542E00207A
:101F1000414E474C455F53454D0000007C2E00204C
:101F2000544F54414C5F53454D000000A42E0020F7
:101F3000801000206C656430207461736B000000B9
:101F4000442B002080120020616E676C6520746154
:101F5000736B0000082C0020801A002073706565E8
:101F600064207461736B0000CC2C00208022002060
:101F7000746F74616C207461736B0000902D00208D
:101F8000802A0020A000002006488047064800471D
:101F9000FEE7FEE7FEE7FEE7FEE7FEE7FEE7FEE719
:101FA000FEE7FEE7610400088901000832490143A9
:101FB000324A1160704770B5002100230F22C478A7
:101FC0001CB32E4C246804F4E064C4F5E064C4F34C
:101FD0000721C1F10404E3B20A4144789C40E1B214
:101FE0008478144021430C07210E254C0578615557
:101FF000047804F01F050124AC4005786D11AD0094
:1020000005F1E025C5F8004109E0047804F01F055A
:102010000124AC401B4D0678761145F8264070BD72
:10202000194A0A400243154B1B1F1A60704739B109
:10203000124A121D12680243104B1B1D1A6006E063
:102040000E4A121D126882430C4B1B1D1A6070470A
:10205000042808D14FF0E021096941F004014FF054
:10206000E022116107E04FF0E021096921F004014D
:102070004FF0E022116170470000FA050CED00E01E
:1020800000E400E080E100E080FFFF1F10B504469F
:102090009848844208D10121084600F086FB0021BF
:1020A000012000F082FB76E09348844208D10121B0
:1020B000022000F07AFB0021022000F076FB6AE0AB
:1020C0008E48844208D10121042000F06EFB0021DB
:1020D000042000F06AFB5EE08948844208D10121B7
:1020E000082000F062FB0021082000F05EFB52E0B7
:1020F0008448844208D10121102000F056FB0021C1
:10210000102000F052FB46E07F48844208D10121B4
:10211000202000F04AFB0021202000F046FB3AE09E
:102120007A48844208D10121402000F03EFB002182
:10213000402000F03AFB2EE07548844208D101218E
:10214000802000F032FB0021802000F02EFB22E0F6
:102150007048844208D10121801500F026FB00213F
:10216000A01500F022FB16E06B48844208D1012143
:10217000401500F01AFB0021601500F016FB0AE084
:102180006648844207D10121001500F00EFB0021B2
:10219000201500F00AFB10BDF0B50A46002100230F
:1021A000002400BF3DE0012505FA01F3156805EAAA
:1021B00003049C4234D105684F000326BE40B5435A
:1021C000056015794E00B540066835430560157900
:1021D000012D02D01579022D16D185684F000326F6
:1021E000BE40B543856055794E00B540866835439D
:1021F0008560456801268E40B543456045689679FF
:102200008E40B6B235434560C5684F000326BE40D8
:10221000B543C560D5794E00B540C6683543C56045
:10222000491C1029BFD3F0BD4FF6FF71016000219A
:10223000017141718171C171704708B54FF48032ED
:102240000092009A0A430092009AC261C161009A0A
:10225000C261C2690092C269009208BD02460020B4
:1022600013690B400BB1012000E0002070470146CC
:10227000086980B270470246002053690B400BB1D9
:10228000012000E0002070470146486980B2704795
:1022900001837047418370470AB1018300E04183A5
:1022A00070474161704742694A4042617047F0B5EA
:1022B000002300244D07ED0E02FA05F3CE1000F1C5
:1022C000200555F826504E07F70E0F26BE40B543A1
:1022D000CF1000F1200646F82750CE1000F120055F
:1022E00055F8265045EA0304CE1000F1200545F8C4
:1022F0002640F0BD000002400004024000080240F9
:10230000000C02400010024000140240001802407D
:10231000001C02400020024000240240002802402D
:10232000F948006840F00100F74908600020F649CC
:1023300008310860F4480068F4490840F249086030
:10234000F348091D0860F348EF4984310860F048FC
:102350001038091D0860EC48006820F48020EA4924
:1023600008600020E8490C310860E7498C310860BA
:1023700070470021E44A921C1170114608707047A2
:1023800010B501460022002300204A11012A02D183
:10239000DD4C236808E0022A03D1DB4C703423684B
:1023A00002E0D94C7434236801F01F0201249440E8
:1023B0001C400CB1012000E0002010BD38B5002009
:1023C00000900024002500BF3120FFF7D9FF05460B
:1023D0000098401C00900098B0F5A04F01D0002D4F
:1023E000F2D03120FFF7CCFF08B1012400E0002437
:1023F000204638BD01460020C34A106820F0F8008E
:1024000040EAC10010607047C3490860704700216E
:10241000BD4A703211701170012802D004280AD10F
:1024200004E00121B84A7032117005E00521B64A76
:102430007032117000E000BF00BF7047B7490860FC
:10244000704770B5049C41EA82150126C6EB53061D
:1024500045EA0645054345EA0465AB4E361D356041
:1024600070BDAD4908667047820142EA0172A64B11
:1024700084331A607047A8498866704710B5830195
:1024800043EA016343EA02739F4C8834236010BD22
:10249000A14908677047A049C864704702460020F8
:1024A000994B0833186820F0EC6042EA01031843A6
:1024B000954B08331860704702460020924B083352
:1024C000186820F0784042EA010318438E4B083325
:1024D00018607047014600208B4A0832106820F0CF
:1024E000030008431060704787480830006800F018
:1024F0000C00704701460020834A0832106820F023
:10250000F000084310607047014600207E4A083200
:10251000106820F4E0500843106070470146002026
:10252000794A0832106820F4604040EAC100106027
:102530007047F0B500210022002402250026022366
:10254000714F08373F6807F00C0121B1042905D00D
:10255000082937D105E0724F076036E0714F0760F8
:1025600033E0694F3F1D3F68C7F38056664F3F1DFC
:102570003F6807F03F036EB16A4FB7FBF3F7DFF830
:1025800088C10CF1040CDCF800C0CCF3881C07FBFC
:102590000CF40CE0624FB7FBF3F7DFF86CC10CF101
:1025A000040CDCF800C0CCF3881C07FB0CF4564F7D
:1025B0003F1D3F68C7F301477F1C7D00B4FBF5F763
:1025C000076002E0564F076000BF00BF4E4F08375C
:1025D0003F6807F0F0010909534F7A5C0768D7405C
:1025E0004760494F08373F6807F4E051890A4E4F6A
:1025F0007A5C4768D7408760434F08373F6807F4E5
:102600006041490B484F7A5C4768D740C760F0BDCE
:10261000002100F44072B2F5407F0AD13A4A0832F4
:10262000116821F4F811414A02401143364A083238
:102630001160354A70321268C0F30B031A43324BF3
:1026400070331A6070473549443908607047334920
:1026500040390860704736490860704701460020DD
:10266000294A8C32106820F01F004A1E1043264A67
:102670008C321060704701460020234A8C3210686B
:1026800020F4F8504A1E40EA02201F4A8C321060A3
:102690007047014600201C4A8C32106820F440101C
:1026A00008431060704701460020174A8C321068BA
:1026B00020F4400008431060704701460020124A91
:1026C0008C32106820F4403008431060704719497C
:1026D0000860704739B10C4A3032126802430A4B25
:1026E00030331A6006E0084A303212688243064BE3
:1026F00030331A607047F9B1034A3432126802432A
:10270000014B34331A601CE000380240FFFFF6EA48
:10271000103000240030002000004742800E474265
:102720000024F40000127A0048000020FFFCFF0F94
:102730005C014742E01147428F4A126882438E4B48
:102740001A60704739B18C4A121D126802438A4BD5
:102750001B1D1A6006E0884A121D12688243864BD0
:102760001B1D1A60704739B1834A0C32126802434C
:10277000814B0C331A6006E07F4A0C3212688243A8
:102780007D4B0C331A60704739B17B4A10321268A6
:102790000243794B10331A6006E0774A1032126810
:1027A0008243754B10331A60704739B1724A243A2C
:1027B00012680243704B243B1A6006E06E4A243ACA
:1027C000126882436C4B243B1A60704739B16A4AE5
:1027D000203A12680243684B203B1A6006E0664AC2
:1027E000203A12688243644B203B1A60704739B12B
:1027F000614A1C3A126802435F4B1C3B1A6006E0B8
:102800005D4A1C3A126882435B4B1C3B1A6070475E
:1028100039B1594A143A12680243574B143B1A60B3
:1028200006E0554A143A12688243534B143B1A602F
:10283000704739B1504A103A126802434E4B103B70
:102840001A6006E04C4A103A126882434A4B103B29
:102850001A60704739B1484A1C3212680243464B2D
:102860001C331A6006E0444A1C3212688243424B11
:102870001C331A60704739B13F4A20321268024354
:102880003D4B20331A6006E03B4A203212688243F7
:10289000394B20331A60704739B1374A24321268F5
:1028A0000243354B24331A6006E0334A243212685F
:1028B0008243314B24331A60704739B12E4A2C328F
:1028C000126802432C4B2C331A6006E02A4A2C3241
:1028D00012688243284B2C331A60704739B1264A5C
:1028E000303212680243244B30331A6006E0224A29
:1028F000303212688243204B30331A60704701280F
:1029000008D11D493C31096841F008011A4A3C329E
:10291000116007E018493C31096821F00801164AA6
:102920003C321160704739B1134A273A127802439A
:10293000114B273B1A7006E00F4A273A1278824360
:102940000D4B273B1A7070470B484030006840F031
:102950008070094940310860704701460020064AEE
:10296000283A12680A400AB1012000E000207047AE
:1029700001492639087070473438024010B50446C2
:10298000FA48844208D101211020FFF752FF0021AC
:102990001020FFF74EFF57E0F548844209D101218E
:1029A0004804FFF735FF00214FF40030FFF730FFF8
:1029B0004AE0F048844209D101218804FFF728FF4A
:1029C00000214FF48020FFF723FF3DE0EA488442D6
:1029D00009D10121C804FFF71BFF00214FF400209B
:1029E000FFF716FF30E0E548844209D101210805D0
:1029F000FFF70EFF00214FF48010FFF709FF23E0DF
:102A0000DF48844208D101212020FFF712FF002176
:102A10002020FFF70EFF17E0DA48844209D1012198
:102A20008807FFF7F5FE00214FF08040FFF7F0FE2A
:102A30000AE0D548844207D101214005FFF7E8FEAE
:102A400000216005FFF7E4FE10BD2DE9FF470546B4
:102A50000E460024A14600BFA046B08900B100BFC9
:102A60002C8A24F44054F08804432C82AC8941F22F
:102A70000C608443B088318908437189084304435A
:102A8000AC81AC8A24F44074B0890443AC826846BB
:102A9000FFF74FFDB548854202D0B948854202D1C3
:102AA000DDF80C9001E0DDF80890A88900F4004002
:102AB00040B109EBC90000EB091031684900B0FBD7
:102AC000F1F707E009EBC90000EB09103168890054
:102AD000B0FBF1F76420B7FBF0F00401200964219A
:102AE00001FB1078A88900F4004040B1322000EBCF
:102AF000C800B0FBF1F000F00700044308E032200A
:102B000000EB08106421B0FBF1F000F00F0004436B
:102B10002C81BDE8FF874FF41651016000218180B0
:102B2000C18001810C21418100218181704710B554
:102B300002460020108A20F470600B884C882343E2
:102B40008C882343CC8823431843108210BD002176
:102B5000018041808180C180704721B1828942F427
:102B60000052828104E082894DF6FF731A4082810F
:102B70007047028B02F47F420283028B0A43028376
:102B8000704721B1828942F40042828103E0828948
:102B9000C2F30E028281704721B1828A42F4006240
:102BA000828204E0828A4FF2FF731A408282704769
:102BB000C1F308028280704701468888C0F308008C
:102BC0007047028A4FF6F0731A400282028A0A4363
:102BD0000282704721B1828942F00202828104E0C0
:102BE00082894FF6FD731A408281704782894FF2C5
:102BF000FF731A40828182890A4382817047028A68
:102C00004FF6DF731A400282028A0A43028270473B
:102C100021B1028A42F48042028204E0028A4BF629
:102C2000FF731A4002827047818941F0010181815E
:102C3000704721B1828A42F00802828204E0828ACF
:102C40004FF6F7731A4082827047028BD2B202832A
:102C5000028B42EA01220283704721B1828A42F04C
:102C60002002828204E0828A4FF6DF731A40828259
:102C7000704721B1828A42F01002828204E0828A87
:102C80004FF6EF731A4082827047828A4FF6FB73C9
:102C90001A408282828A0A438282704721B1828AE4
:102CA00042F00202828204E0828A4FF6FD731A40EB
:102CB000828270471AB1838A0B43838202E0838A3F
:102CC0008B4383827047F0B503460024002600251D
:102CD000002040F66A17B94200D100BF1846C1F380
:102CE000421401F01F06012707FA06F5012C01D155
:102CF0000C3004E0022C01D1103000E014301AB185
:102D000007682F43076002E00768AF430760F0BD24
:102D100002460020B1F5007F00D100BF13880B40B0
:102D20000BB1012000E00020704701F40072B2F501
:102D3000007F00D100BFCA430280704770B50246D1
:102D4000002400230025002040F66A16B14200D17D
:102D500000BFC1F3421501F01F03012606FA03F379
:102D6000012D13D19689334017E000000010014077
:102D70000044004000480040004C0040005000402B
:102D80000014014000780040007C0040022D02D178
:102D9000168A334001E0968A33400C12012606FA67
:102DA00004F41688344013B10CB1012000E0002077
:102DB00070BD10B50022002340F66A14A14200D174
:102DC00000BF0A1201249440A3B2DC43048010BD6A
:102DD00010B50446FE48844209D101214806FFF798
:102DE00017FD00214FF00070FFF712FD08E00121F0
:102DF0008806FFF70DFD00214FF08060FFF708FD0A
:102E000010BD30B5024600200023146824F00204EF
:102E10001460146844F00104146000E05B1C546802
:102E200004F001041CB94FF6FF74A342F6D15468B4
:102E300004F001040CB900206CE08C79012C04D161
:102E4000146844F08004146003E0146824F08004E3
:102E50001460CC79012C04D1146844F0400414604F
:102E600003E0146824F0400414600C7A012C04D1AF
:102E7000146844F02004146003E0146824F0200473
:102E800014604C7A012C04D1146844F010041460CE
:102E900003E0146824F0100414608C7A012C04D12F
:102EA000146844F00804146003E0146824F0080473
:102EB0001460CC7A012C04D1146844F0040414602A
:102EC00003E0146824F0040414608C78A407CD781F
:102ED00044EA05640D7944EA05444D7944EA055411
:102EE0000D886D1E2C43D461146824F00104146015
:102EF000002300E05B1C546804F001041CB14FF691
:102F0000FF74A342F6D1546804F001040CB1002010
:102F100000E0012030BD10B50021837A012202FAC1
:102F200003F1AC4A126842F00102AA4B1A60A94AA6
:102F30001C3212688A43A74B1C331A60027BCAB941
:102F4000A44A0C3212688A43A24B0C331A6042889E
:102F5000C38842EA03439F4A4032847A42F83430BD
:102F60000288838842EA03439A4A4032847A02EB19
:102F7000C4025360027B012A19D1964A0C321268AE
:102F80000A43944B0C331A604288038842EA034395
:102F9000904A4032847A42F83430C288838842EAC8
:102FA00003438C4A4032847A02EBC4025360C27AF3
:102FB0003AB9884A121D12688A43864B1B1D1A6053
:102FC00006E0844A121D12680A43824B1B1D1A60D8
:102FD000028932B97F4A143212688A437D4B143316
:102FE0001A600289012A06D17A4A143212680A4309
:102FF000784B14331A60427B012A06D1754A1C3281
:1030000012680A43734B1C331A60724A126822F02A
:103010000102704B1A6010BD00218171C1710172F3
:1030200041728172C1728170C170032101710221EC
:1030300041710121018070476649096841F0010131
:10304000644A11601146096843F60E729143614A61
:1030500011601146096841EA0021116011460968B2
:1030600021F001011160704721B1026842F4803201
:10307000026003E0026822F4803202607047E1B12E
:10308000026842F0800202604FF4C272125842F4A9
:1030900080734FF4C27213504FF4CA72125842F444
:1030A00080734FF4CA7213504FF4D272125842F424
:1030B00080734FF4D27213501BE0026822F080023A
:1030C00002604FF4C272125822F480734FF4C2723D
:1030D00013504FF4CA72125822F480734FF4CA721C
:1030E00013504FF4D272125822F480734FF4D272FC
:1030F0001350704710B502460020936803F08063B8
:10310000B3F1806F00D110E0936803F00063B3F176
:10311000006F01D1012008E0936803F08053B3F100
:10312000805F01D1022000E00420042879D002F55C
:10313000C07303EB00131B6803F0010402F5C073B6
:1031400003EB00131C600B7A7BB94B7A0C8843EAC3
:10315000445302F5C07404EB00142468234302F5C1
:10316000C07404EB0014236010E00B7A4C6843EA4F
:10317000C4034C7A234302F5C07404EB00142468A2
:10318000234302F5C07404EB001423608B7A03F030
:103190000F038B7202F5C07303EB00135B6823F01F
:1031A0000F0402F5C07303EB00135C6002F5C073FB
:1031B00003EB00135B688C7A234302F5C07404EBC5
:1031C000001463608B7B1C064B7B44EA034403E0E2
:1031D00000640040006600400B7B44EA0323CC7A85
:1031E000234302F5C07404EB0014A3608B7C1C061F
:1031F0004B7C44EA03440B7C44EA0323CC7B23430B
:1032000002F5C07404EB0014E36002F5C07303EB35
:1032100000131B6843F0010402F5C07303EB0013B5
:103220001C6010BD10B50246002321B1012907D052
:1032300002290FD109E09068F94C00EA04030BE081
:103240009068F84C00EA040306E09068F64C00EA47
:10325000040301E0002300BF00BFF44C181BA3428D
:1032600016D007DC83B16FF08060184470B102287B
:1032700018D111E0B0F5007F10D0ED4C204448B1DA
:10328000B0F5003F0ED10BE002230DE000230BE070
:10329000002309E0002307E0012305E0012303E008
:1032A000012301E0002300BF00BFD8B210BD21B14F
:1032B000012907D002290FD109E0826842F080027B
:1032C00082600AE0826842F40042826005E082681F
:1032D00042F40002826000E000BF00BF704710B5FA
:1032E00000F5D87303EB01131B6803F0040313729A
:1032F000137A53B900F5D87303EB01131B6840F23E
:10330000FF7404EA5353136009E000F5D87303EB2C
:1033100001131B686FF0604404EAD303536000F5A7
:10332000D87303EB01131B6803F00203537200F51B
:10333000D87303EB01135B6803F00F03937200F57E
:10334000D87303EB01135B681B0AD37400F5D873C1
:1033500003EB01139B68D37200F5D87303EB0113E1
:103360009B681C0A147300F5D87303EB01139B6868
:103370001C0C547300F5D87303EB01139B681B0EF0
:10338000937300F5D87303EB0113DB68D37300F577
:10339000D87303EB0113DB681C0A147400F5D873AF
:1033A00003EB0113DB681C0C547400F5D87303EBBA
:1033B0000113DB681B0E937421B9C36843F020032B
:1033C000C36003E0036943F02003036110BD21B92A
:1033D000C26842F02002C26003E0026942F02002AB
:1033E000026170470246002019B9D36803F0030058
:1033F00006E0012903D1136903F0030000E0002077
:10340000704710B502460B4600204FF6FF71BBB95E
:10341000146824F0020444F00104146000E0491E22
:10342000546804F00304012C01D00029F7D154683A
:1034300004F00304012C01D0002032E0012030E030
:10344000012B13D1146824F00304146000E0491E1A
:10345000546804F003040CB10029F8D1546804F056
:1034600003040CB100201CE001201AE0022B17D14C
:10347000146824F0010444F00204146000E0491EC2
:10348000546804F00304022C01D00029F7D15468D9
:1034900004F00304022C01D0002002E0012000E02F
:1034A000002010BD014600200A6822F0010242F00F
:1034B00002020A604A6802F00302022A00D10120D7
:1034C000704701464FF6FF7200200B6823F002039D
:1034D0000B6000E0521E4B6803F00203022B01D187
:1034E000002AF7D14B6803F00203022B00D0012021
:1034F0007047014600208A6902F07000704701465B
:1035000000208A69100E7047014600208A69C2F3C4
:10351000074070471AB143690B43436102E04369B6
:103520008B434361704710B50246002001F47003DD
:1035300043B19369C1F3130423400BB101202DE083
:1035400000202BE001F0807343B15368C1F31304F2
:1035500023400BB1012021E000201FE001F00063B7
:1035600043B19368C1F3130423400BB1012015E06C
:10357000002013E001F0007343B1D368C1F31304DA
:1035800023400BB1012009E0002007E01369C1F3DB
:10359000130423400BB1012000E0002010BD0022E5
:1035A000244B994202D10023836111E0C1F313023D
:1035B00001F000730BB1C2600AE001F080630BB14F
:1035C000026105E001F000630BB1826000E042603F
:1035D00070470246002002EA01030BB1012000E01F
:1035E0000020704770B504460D46002660692840EB
:1035F000002872D0B5F5807F69D01DDC082D42D03F
:1036000006DC012D2DD0022D31D0042D7FD134E0E8
:10361000102D3ED0202D42D0402D78D145E0000025
:10362000030000040003000800000310000100086C
:103630000001FFF77000F030B5F5004F61D009DCF4
:10364000B5F5007F4AD0B5F5806F4DD0B5F5006F68
:103650005DD150E0B5F5803F2DD0B5F5003F56D196
:103660002FE0A0685549FFF7B4FF064651E0E06837
:103670000321FFF7AEFF06464BE0E0680821FFF7A5
:10368000A8FF064645E0E0681021FFF7A2FF0646C6
:103690003FE020690321FFF79CFF064639E02069DF
:1036A0000821FFF796FF064633E020691021FFF757
:1036B00090FF06462DE060680821FFF78AFF064666
:1036C00027E060681021FFF784FF064621E0A0692B
:1036D0000121FFF77EFF06461BE01BE0A0690221E7
:1036E000FFF777FF064614E0A0690421FFF771FF9A
:1036F00006460EE00BE0A0697021FFF76AFF064660
:1037000007E060680421FFF764FF064601E0002639
:1037100000BF00E00026304670BDB1F5007F3AD012
:103720000FDC202928D006DC01291CD004291DD05B
:10373000082940D11DE0402921D0B1F5807F3AD140
:1037400026E0B1F5004F31D006DCB1F5806F25D011
:10375000B1F5006F2FD124E0B1F5803F12D0B1F563
:10376000003F28D111E0154A826025E00822C2609E
:1037700022E01022C2601FE0082202611CE0102239
:10378000026119E00822426016E01022426013E054
:103790000422426010E0042242600DE004224260F4
:1037A0000AE0002282610422426005E00022826178
:1037B0000422426000E000BF00BF70470101010029
:1037C00010B50446FE48844208D101210846FFF79F
:1037D00030F800210120FFF72CF89DE0B4F1804F74
:1037E00008D101210846FFF713F800210120FFF757
:1037F0000FF891E0F348844208D101210220FFF73D
:1038000007F800210220FFF703F885E0EE48844224
:1038100008D101210420FEF7FBFF00210420FEF760
:10382000F7FF79E0E948844208D101210820FEF73A
:10383000EFFF00210820FEF7EBFF6DE0E448844233
:1038400008D101211020FEF7E3FF00211020FEF730
:10385000DFFF61E0DF48844208D101212020FEF72C
:10386000D7FF00212020FEF7D3FF55E0DA4884423D
:1038700008D101210220FEF7DCFF00210220FEF723
:10388000D8FF49E0D548844209D101210804FEF758
:10389000D0FF00214FF48030FEF7CBFF3CE0D04852
:1038A000844209D101214804FEF7C3FF00214FF4EF
:1038B0000030FEF7BEFF2FE0CA48844209D1012143
:1038C0008804FEF7B6FF00214FF48020FEF7B1FF19
:1038D00022E0C548844208D101214020FEF798FF2C
:1038E00000214020FEF794FF16E0C048844208D132
:1038F00001218020FEF78CFF00218020FEF788FF49
:103900000AE0BB48844207D101218015FEF780FF01
:103910000021A015FEF77CFF10BD00220288A84BF5
:1039200098420ED0AC4B98420BD0B0F1804F08D0EB
:10393000A44B984205D0A44B984202D0A34B984286
:1039400004D14FF68F731A404B881A43A04B98420C
:1039500007D0A04B984204D04FF6FF431A400B8982
:103960001A4302804B68C3620B880385944B9842CC
:1039700002D0994B984201D18B7A0386012383822E
:1039800070474FF0FF31416000210180018141808B
:10399000817270470185828270470A460021018842
:1039A0004FF68F7319401143018070474162704791
:1039B000C16270470146486A70470146088D7047EA
:1039C00021B1028842F00202028004E002884FF630
:1039D000FD731A400280704721B1028842F0040250
:1039E000028004E002884FF6FB731A4002807047A1
:1039F00021B1028842F08002028004E002884FF682
:103A00007F731A400280704702884FF6F7731A409E
:103A1000028002880A430280704702884FF6FF4303
:103A20001A40028002880A430280704721B102884E
:103A300042F00102028004E002884FF6FE731A4051
:103A40000280704770B5002400220023058C4FF6D9
:103A5000FE7635400584028C8388048B4FF68F7583
:103A60002C40B51E2C400D882C43751E2A408D8994
:103A70002A434D882A43524DA84202D0564DA842AF
:103A800013D14FF6F7752A40CD892A434FF6FB75BF
:103A90002A408D882A434FF6FF652B404FF6FF558D
:103AA0002B400D8A2B434D8A2B43838004838D68E2
:103AB0004563028470BD70B5002400220023058C8C
:103AC0004FF6EF7635400584028C8388048B48F6E8
:103AD000FF752C404FF6FF452C400D884FF6FF76C2
:103AE00006EA05252C434FF6DF752A408D8906EA44
:103AF00005152A434D8806EA05152A43304DA8428C
:103B000002D0354DA8421DD14FF67F752A40CD8990
:103B10004FF6FF7606EA05152A434FF6BF752A4091
:103B20008D8806EA05152A434FF6FF352B404FF2E4
:103B3000FF752B400D8A06EA85052B434D8A06EA60
:103B400085052B43838004838D688563028470BD63
:103B500070B5002400220023058C4FF6FF66354027
:103B60000584028C8388848B4FF68F752C404FF62A
:103B7000FC752C400D882C434FF6FF552A408D894B
:103B80004FF6FF7606EA05252A434D8806EA052505
:103B90002A430B4DA84202D00F4DA84238D14FF214
:103BA000FF752A40CD894FF6FF7606EA05252A43A0
:103BB0004FF6FF352A408D8806EA05252A4319E08D
:103BC000000001400004004000080040000C0040DC
:103BD000001000400014004000040140004001407B
:103BE000004401400048014000180040001C004013
:103BF000002000404EF6FF752B404DF6FF752B4020
:103C00000D8A06EA05152B434D8A06EA05152B4356
:103C1000838084838D68C563028470BD70B5002283
:103C200000230024058C4EF6FF7635400584038C76
:103C30008488828B48F6FF752A404FF6FF452A405C
:103C40000D884FF6FF7606EA05252A434DF6FF75E7
:103C50002B408D8906EA05352B434D8806EA05354C
:103C60002B43FE4DA84202D0FD4DA84208D14BF691
:103C7000FF752C400D8A4FF6FF7606EA85152C431A
:103C8000848082838D680564038470BD0021018077
:103C90004180818081608181C18101824182704740
:103CA00070B50346002000241846183001258D40C9
:103CB000ACB21D8CA5431D8409B108290AD100EBC3
:103CC000610005684FF68F7635400560056815433D
:103CD00005600FE00D1FC5F34E052844056848F642
:103CE000FF763540056005684FF6FF7606EA022646
:103CF0003543056070BD4163704781637047C163A0
:103D00007047016470470A460021018B4FF68F739C
:103D100019401143018370470A460021018B48F680
:103D2000FF7319404FF6FF7303EA0223194301831F
:103D300070470A460021818B4FF68F73194011435B
:103D4000818370470A460021818B48F6FF73194032
:103D50004FF6FF7303EA02231943818370470A4633
:103D60000021018B4FF6F77319401143018370470F
:103D70000A460021018B4FF2FF7319404FF6FF7383
:103D800003EA02231943018370470A460021818B0D
:103D90004FF6F77319401143818370470A4600219B
:103DA000818B4FF2FF7319404FF6FF7303EA022332
:103DB0001943818370470A460021018B4FF6FB733C
:103DC00019401143018370470A460021018B4FF6C9
:103DD000FF3319404FF6FF7303EA022319430183AF
:103DE00070470A460021818B4FF6FB73194011433F
:103DF000818370470A460021818B4FF6FF331940BB
:103E00004FF6FF7303EA02231943818370470A4682
:103E10000021018B4FF67F731940114301837047D6
:103E20000A460021018BC1F30E014FF6FF7303EA2E
:103E300002231943018370470A460021818B4FF604
:103E40007F7319401143818370470A460021818B9B
:103E5000C1F30E014FF6FF7303EA02231943818376
:103E600070470A460021018C4FF6FD73194011433B
:103E7000018470470A460021018C4FF6F773194000
:103E80001143018470470A460021018C4FF6DF730D
:103E900019404FF6FF7303EA021319430184704778
:103EA0000A460021018C4FF67F7319404FF6FF73CD
:103EB00003EA02131943018470470A460021018C6A
:103EC0004FF6FF5319404FF6FF7303EA02231943DD
:103ED000018470470A460021018C4FF2FF7319409C
:103EE0004FF6FF7303EA02231943018470470A4621
:103EF0000021018C4DF6FF7319404FF6FF7303EA62
:103F0000023319430184704730B5002301248C40EB
:103F1000A3B2048C9C430484048C02FA01F5ADB274
:103F20002C43048430BD30B5002304248C40A3B25C
:103F3000048C9C430484048C02FA01F5ADB22C433A
:103F4000048430BD828B4FF2FF331A408283828B10
:103F50004FF6FF7303EA01231A4382837047F0B5DB
:103F60000C461546002100220026078C4EF6FF7CE9
:103F700007EA0C070784818B028C4FF6FF7707EA6C
:103F8000043640F6FF4739404FF6FF7707EA05272A
:103F900039434FF6FF7707EA0337394345F6FF7792
:103FA0003A4046F480573A4381830284F0BD828BC5
:103FB0004FF6F3731A408283828B0A4382837047E1
:103FC000F0B50C461546002100220026078C4FF65E
:103FD000FF6C07EA0C070784818B028C4FF6FF7792
:103FE00007EA04264FF60C7739404FF6FF7707EAC9
:103FF00003172F4339434FF2FF573A4046F4807777
:104000003A4381830284F0BD028B4FF2FF331A40A2
:104010000283028B4FF6FF7303EA01231A430283E4
:104020007047F0B50C461546002100220026078C8B
:104030004FF6EF7C07EA0C070784018B028C4FF6E2
:10404000FF7707EA041640F6FF4739404FF6FF773F
:1040500007EA033739434FF6FF7703E000000140DA
:104060000004014007EA052739434FF65F773A40DD
:1040700046F010073A4301830284F0BD028B4FF6ED
:10408000F3731A400283028B0A4302837047F0B530
:104090000C46154600210022068C4FF6FE773E4066
:1040A0000684018B028C4FF60C7631407E1C06EAAA
:1040B00003162E4331434FF6F576324044F00106A5
:1040C000324301830284F0BD70B505460C4620885A
:1040D00050B92389A28861882846FFF7D8FFE18874
:1040E0002846FFF7CBFF25E0208804280AD1238942
:1040F000A28861882846FFF794FFE1882846FFF7E9
:1041000083FF17E0208808280AD12389A2886188C4
:104110002846FFF755FFE1882846FFF748FF09E0EA
:104120002389A28861882846FFF719FFE18828467D
:10413000FFF708FF70BD00210180418001218180CF
:104140000021C180018170472DE9F04105460C46F0
:1041500000260127608808B9022600E00026A08812
:10416000012801D1022700E001272088A0B9238976
:10417000A28861882846FFF78AFFE1882846FFF772
:104180007DFF23893A4631462846FFF74AFFE188FA
:104190002846FFF739FF13E02389A2886188284663
:1041A000FFF73FFFE1882846FFF72EFF23893A46B5
:1041B00031462846FFF76BFFE1882846FFF75EFF90
:1041C000BDE8F0810146486B70470146886B704737
:1041D0000146C86B70470146086C70470A884B88D7
:1041E0001A438B881A43CB881A430B891A434B898D
:1041F0001A438B891A43A0F844207047002101809C
:1042000041808180C180018141818181704731B1CC
:10421000B0F8442042F40042A0F8442005E0B0F891
:104220004420C2F30E02A0F84420704721B18288D6
:1042300042F00402828004E082884FF6FB731A4049
:104240008280704721B1828842F00102828004E0BE
:1042500082884FF6FE731A40828070471AB18389B4
:104260000B43838102E083898B4383817047818282
:10427000704702460020138A0B400BB1012000E07A
:1042800000207047CA430282704730B502460020C2
:1042900000230024158A05EA0103958905EA010433
:1042A00013B10CB1012000E0002030BDCA430282EE
:1042B000704741EA0203A0F8483070471AB1838979
:1042C0000B43838102E083898B438381704721B153
:1042D000828842F00802828004E082884FF6F773F9
:1042E0001A408280704701894FF6F87211400181AF
:1042F00070470A46002101894FF68F731940114318
:104300000181704730B504460D4629462046FFF727
:10431000F0FF208940F00700208130BD2DE9F041F9
:1043200004460D4616461F46602D06D13B46012227
:1043300031462046FFF775FE05E03B460122314637
:104340002046FFF7A4FE29462046FFF7D2FF20892A
:1043500040F007002081BDE8F08130B50C46002117
:104360000189C9B24FF6FF7505EA032515432543B8
:104370002943018130BD2DE9F04105460E4617461F
:104380009846002443463A4631462846FFF7E5FF63
:104390002C894FF6F870044044F007044FF68F70F4
:1043A000044044F070042C81BDE8F081F0B504466F
:1043B0000D4616461F463B46324629462046FFF725
:1043C000CCFF208940F480402081F0BD82884FF6E8
:1043D0008F731A40828082880A43828070470289E4
:1043E0004FF6F8731A40028102890A43028170472E
:1043F00002894FF67F731A40028102890A430281C3
:104400007047F0B50C4615461E46002100220023D9
:104410000189028B038C4FF6F877394021434FF620
:10442000FC473A4040F201173A434FF6DD773B40F4
:104430004FF6FF7707EA06172F433B4301810283BC
:104440000384F0BD21B1828842F08002828004E0C2
:1044500082884FF67F731A4082807047A0F8501010
:104460007047000008B5684602F0D2F808BD08B5EC
:10447000684602F017F908BD38B504466A460821B7
:10448000204608F0FDFB38BD10B5424800780128F1
:1044900005D102F003F808F07FFE02F010F810BD1D
:1044A00070B504466FF00400FDF7D2FD2046E11719
:1044B00004EB5171C1F3C701374A1170E11704EBE6
:1044C0005171CD10354800683549B1FBF0F04543D6
:1044D000324800684FF47A71B1FBF0F0314908803E
:1044E0004FF0E020006940F002004FF0E021086149
:1044F00008464561006940F00100086170BD2DE982
:10450000F047074600264FF0E020D0F814902248EC
:10451000007807FB00F8FFF7A5FF4FF0E020856962
:1045200011E04FF0E0208469AC420CD0AC4202D2E2
:10453000281B064403E0A9EB040028440644254652
:10454000464500D300E0ECE700BFFFF790FFBDE871
:10455000F08770B504460F480078A0B11248007883
:1045600088B910480088844206DB0E48008894FB16
:10457000F0F52846FFF780FF0A48008894FBF0F129
:1045800000FB114084B24FF47A7104FB01F0FFF795
:10459000B6FF70BD9500002058000020ACEF000869
:1045A00040420F005A00002094000020014600BF46
:1045B000704700BF504A128802F04002002AF9D02A
:1045C000C2B24D4B9A80704710B588B004460121A5
:1045D0000846FEF77FF801211020FEF7D5F80722E4
:1045E00009214648FDF763FE07220A214348FDF7EB
:1045F0005EFE4FF4C060069002208DF81C008DF81E
:104600001D0000208DF81E0001208DF81F0006A956
:104610003A48FDF7C1FD02940020ADF80C00ADF85A
:104620000E00ADF81000ADF814000C20ADF812002B
:1046300002A93148FEF709FA01212F48FEF78DFA49
:1046400040212D48FEF771FB012240F225512A48F6
:10465000FEF739FB25208DF8040003208DF80500B6
:104660008DF8060001208DF8070001A8FDF7A3FCD6
:1046700008B010BD10B501F011FF40F225511E48E1
:10468000FEF75CFB10B31C48FEF796FAC4B21C4858
:10469000008800F40040C8B91948008800F4804040
:1046A00060B10A2C03D000201549088020E014488E
:1046B000008840F400401249088019E00D2C06D112
:1046C0000F48008840F480400D49088010E00C48F5
:1046D0000088C0F30D000B490C5409480088401CA9
:1046E0000749088008460088C72801DD00200880A7
:1046F00001F0E5FE10BD0000001001400000024086
:1047000060000020CC2E00201FB56846FDF711FF89
:10471000019804B010BD10B5FFF7F6FF0446184825
:10472000006840F080701649086000201549486014
:104730000846006840F001000860204600F0B7F825
:1047400010BD1049486870472DE9F0478246FFF7D1
:10475000DBFF4FF0000980460B4A002340464946E4
:1047600009F048FB064632460B465046002109F048
:1047700041FB04460D4620462946BDE8F08700006F
:10478000FCED00E0001000E040420F0010B50024F6
:1047900000BF00BF00F052F9044600BF00BF102167
:1047A000A14800F0D2FA00BF00BF204600F04AF94D
:1047B00000BF00BF10BD10B5FFF7E8FF10BD10B57A
:1047C00000209A490860FFF7A6FF10BD10B5FFF75B
:1047D000F6FFFFF7F0FF10BD00BFFEE770B505461E
:1047E0000C46002614B900BFFFF7F6FF15B90A20E2
:1047F000208070BD00BF00BF00F020F9064600BF5A
:1048000000BF10228849284600F056FF00BF00BFB5
:10481000304600F017F900BF00BF0020208000BF25
:10482000E7E72DE9F04105460C46002714B900BF23
:10483000FFF7D2FF1DB90A202080BDE8F0811021CA
:10484000284600F021FF0646102E15D200BF00BFFB
:1048500000F0F4F8074600BF00BF10222946724856
:1048600000F02AFF00BF00BF384600F0EBF800BFA1
:1048700000BF0020208002E04FF47A70208000BF4B
:10488000DBE710B5FFF75DFF0446204610BD70471B
:1048900000B5014611B900BFFFF79EFF634A1068DB
:1048A00008B1002201E04FF4FA620A8000BD5F49BE
:1048B0000860704770B50546284600F0CAF80446FF
:1048C000183C204670BD70B50546284600F0C1F87A
:1048D0000446103C204670BD70B50546284600F0E1
:1048E000B8F8044600BF204670BD30B502460B46FE
:1048F0000024D2F1FF359C4126D24FF6FF74D2F14D
:10490000FF359C410FD26FF07F44D2F1FF359C41BF
:1049100003D2190E464C605C44E0190C444C645CB4
:1049200004F108003EE0FF24D2F1FF359C4105D29E
:10493000190A3F4C645C04F1100033E019463C4C0A
:10494000645C04F118002DE04FF6FF750024AD1AE9
:104950009C4115D26FF07F450024AD1A9C4107D2CF
:10496000140E44EA0321324C645C04F1200019E087
:10497000140C44EA03412E4C645C04F1280011E05D
:104980000024D2F1FF059C4107D2140A44EA0361D6
:10499000274C645C04F1300004E01146244C645C54
:1049A00004F1380030BD70B504460CB9082070BD64
:1049B000204600F051F805462846F8E770B5044651
:1049C0000CB9102070BD204600F046F80546284678
:1049D000F8E770B504460CB9202070BD204600F001
:1049E0003BF805462846F8E72DE9F04304460D4616
:1049F000002184EA01006940084302D14020BDE85B
:104A0000F083E243E843521C40F1000102EA04064D
:104A100001EA050730463946FFF767FF8046C8F1CF
:104A20003F094846EBE70000942F00206400002077
:104A3000B4ED000872B6704762B67047EFF31080AD
:104A400072B6704780F31088704730BF704720BF40
:104A50007047B0FA80F0704790FAA0F0B0FA80F09A
:104A6000704790FAA0F070470146412903DB5A29AC
:104A700001DC012200E00022012A08D0612903DBC9
:104A80007A2901DC012200E00022012A01D1012261
:104A900000E00022104670470146412903DB5A29F5
:104AA00001DC012200E00022012A08D0612903DB99
:104AB0007A2901DC012200E00022012A01D1012231
:104AC00000E00022012A08D0302903DB392901DC6B
:104AD000012200E00022012A01D1012200E000228F
:104AE000104670470146612903DB7A2901DC012267
:104AF00000E00022104670470146412903DB5A2995
:104B000001DC012200E000221046704701463029F6
:104B100003DB392901DC012200E000221046704746
:104B20000146302903DB372901DC012200E00022A5
:104B3000104670470146302901DB392907DD41293C
:104B400001DB462903DD612903DB662901DC012243
:104B500000E00022104670470146202901D00929B3
:104B600001D1012200E000221046704701462029B1
:104B700009D00D2907D00A2905D00C2903D009290D
:104B800001D00B2901D1012200E00022104670471C
:104B90000146202903DB7E2901DC012200E00022FE
:104BA000104670470146212903DB7E2901DC0122E2
:104BB00000E00022104670470146202903DB7E29D1
:104BC00001DC012200E00022012A35D1202909D090
:104BD0000D2907D00A2905D00C2903D0092901D0B5
:104BE0000B2901D1012200E000222ABB412903DB6D
:104BF0005A2901DC012200E00022012A08D06129A3
:104C000003DB7A2901DC012200E00022012A01D124
:104C1000012200E00022012A08D0302903DB3929D3
:104C200001DC012200E00022012A01D1012200E082
:104C300000220AB9012200E0002210467047014616
:104C40004AB2002A01DB1F2901DD7F2901D101229F
:104C500000E00022104670470146412903DB5A2933
:104C600001DC012200E00022012A02D101F1200230
:104C700000E00A46D0B270470146612903DB7A2979
:104C800001DC012200E00022012A02D1A1F1200270
:104C900000E00A46D0B27047F0B504460B46204605
:104CA000FFF7EAFF05461846FFF7E6FF0646B5425E
:104CB00001D1012000E0002007463846F0BD000089
:104CC000FC48FD4901600146416000218160C160EE
:104CD000016141618161C16101620163C16241623F
:104CE000F6498163C1634FF4806101644164014608
:104CF000F34A116070472DE9F04105460B46944692
:104D00000027002402E03F021F43641C042CFAD356
:104D1000604605F00306294646B1344603E001F833
:104D2000013B401E641C08B1042CF8D30A4601E084
:104D300080C2001F0428FBD2114602E001F8013BAB
:104D4000401E0028FAD1BDE8F08130B505460C467A
:104D5000224600212846FFF7CEFF30BD2DE9F04F57
:104D600085B007468846914646463D46AE4207D93D
:104D70004A464146384601F01DF905B0BDE8F08FBE
:104D80004C4607EB0900451E08EB0900461EA81B10
:104D900004900498042834D305F00300029006F030
:104DA00003010191DDE90110884201D1012000E0F9
:104DB000002000900098012823D10298032810D0E9
:104DC000029840B2039008E016F8010905F80109BD
:104DD000641E0398401E40B2039014B1039800284B
:104DE000F2DAA5F1030AA6F1030B04E05BF804096B
:104DF0004AF80409241F042CF8D20AF103050BF128
:104E0000030604E016F8010905F80109641E002CE8
:104E1000F8D100BFB1E72DE9F84F80468946154625
:104E200015B90120BDE8F88FB8F1000F01D10020BD
:104E3000F8E7B9F1000F01D10020F3E7012429467A
:104E400008EB050209EB050302F0030C03F0030B6A
:104E5000DC4501D1012000E00020009000980128ED
:104E600029D1BCF1000F12D0E2460AE0521E5B1EAF
:104E7000107893F800E0704500D00024491EAAF194
:104E8000010A012C03D111B1BAF1000FEED1012CAE
:104E900011D116461F4608E0361F3F1F3068D7F86D
:104EA00000E0704500D00024091F012C01D1042925
:104EB000F2D232463B4608E0521E5B1E107893F851
:104EC00000E0704500D00024491E012C01D10029CA
:104ED000F2D12046A6E7F0B503460E461546D96B3B
:104EE000B1FBF5F005FB101CBCF1000F02D0A5EBE7
:104EF0000C0200E000229419586CA04201D200205C
:104F0000F0BD0F191144DF63586C001B586408464C
:104F1000F6E72DE9F04106460F46B6FBF3FC03FB2E
:104F20001C6109B15C1A00E00024B2FBF3FC03FB36
:104F30001C2109B15D1A00E0002502EB0508A7F16C
:104F4000010C08FB0C4C0CEB0200BDE8F0812DE9D4
:104F5000FE4F8046894614461E46002000900CB93C
:104F600001AC00BF00202060524F00BF00BFFFF720
:104F700065FD009000BF00BFF86B0290D7F844B009
:104F80004B46424601210298FFF7C3FF05465D45A7
:104F90000FD900BF00BF0098FFF754FD00BF00BF4E
:104FA000A5EB0B00206042F2E27030800020BDE8EB
:104FB000FE8F4A4641463846FFF78DFF8246BAF1DA
:104FC000000F0CD100BF00BF0098FFF73BFD00BFF2
:104FD00000BF256042F2E27030800020E7E700BFAA
:104FE00000BF0098FFF72EFD00BF00BF42F2107017
:104FF00030805046DBE72DE9FC5F07460C469046C3
:105000000020009000BF00BFFFF718FD009000BF18
:1050100000BFD7F80490D9F8380008B1484600E03E
:1050200024488246DAF84450DAF83CB000BF00BFAA
:105030000098FFF707FD00BF00BF012C0AD9BBFB9A
:10504000F4F004FB10B60EB1A01B00E000200190AC
:1050500001982D1A42F21070A8F800002846BDE809
:10506000FC9F70B504460D462A4621461148FFF7BD
:10507000C2FF0646304670BD18B942F211720A806E
:105080007047104A0260002242608260C260026182
:1050900042618261C2610262826242630263C262F1
:1050A00042628263C2630264426442F210720A8006
:1050B00000BFE5E7A42F002048454150EC2F002019
:1050C000680000204E4F4E452DE9FF4F91B0044639
:1050D000DDE9208900200090B8F1000F02D10DF128
:1050E000180800BF0020C8F8000049462046FFF716
:1050F000C3FFB9F8000042F21071884202D015B027
:10510000BDE8F08FFE48006820B942F2E770A9F8C8
:105110000000F4E7DFF8ECA30020059000BF00BF1B
:10512000FFF78CFC009000BF00BF129880BB554673
:10513000AB462E46DAF83C000D9004231A4614992B
:105140000D98FFF7E6FE049004990D9808440C9022
:10515000DDE91E2314990C98FFF7DBFE0390DDE9CF
:10516000030108440590DAF844700598B8427DD9E7
:1051700000BF00BF0098FFF765FC00BF00BF0598A7
:10518000C01BC8F8000042F2E270A9F80000B6E7C0
:10519000FFE712980B90DDE912010844401E0A90C7
:1051A0000025AB46D64806683BE0B16B12988142B9
:1051B00005D1316C1398814201D1354633E0B06B93
:1051C0000990316CB06B0844401E0890DDE909017C
:1051D000814200D227E009990B98884203D8DDE983
:1051E000091088420FD209990B98884203D3089975
:1051F0000A98884207D908990B9888420FD80899CD
:105200000A9888420BD300BF00BF0098FFF71AFC32
:1052100000BF00BF42F27F70A9F800006FE7B346FD
:10522000F668002EC1D100BF45B925461298A0638B
:105230001298E0631398206413986064DAF83C00D5
:105240000D9004231A4614990D98FFF762FE0490FE
:10525000DAF844700498B84211D900BF00BF009832
:10526000FFF7F0FB00BF00BF049800E024E0C01B84
:10527000C8F8000042F2E270A9F800003FE7E86BCE
:105280000C90DDE91E2314990C98FFF742FE039061
:105290006F6C0398B8420FD900BF00BF0098FFF7AA
:1052A000D1FB00BF00BF0398C01BC8F8000042F24A
:1052B000D870A9F8000022E7149880000290042218
:1052C00050460299FFF707FE0F900F9830BBDAF8AF
:1052D000447000BF00BF0098FFF7B4FB00BF00BFE1
:1052E000129858B90598B84204D90598C01BC8F857
:1052F00000000EE00598C8F800000AE00298B842E5
:1053000004D90298C01BC8F8000002E00298C8F84F
:10531000000042F2E270A9F80000F0E600200190DF
:1053200034E02846DDE91E12FFF7D5FD0E900E98F9
:1053300020BBE86B0C906F6C00BF00BF0098FFF7BC
:1053400081FB00BF00BF01991498401A0790DDE966
:105350001E2307990C98FFF7DCFD05900598B842CD
:1053600004D90598C01BC8F8000002E00598C8F8E9
:10537000000042F2D870A9F80000C0E6019ADDE909
:105380000E0141F822000198401C019014990198E7
:105390008842C6D3A5420DD1C4F808B0E660BBF17F
:1053A000000F02D0CBF80C4001E0554804605EB11C
:1053B000B46009E0686910902561109860616C61C3
:1053C000109808B1109804614F48206065600C98EF
:1053D000A06103990C980844401EE0610F98206278
:1053E0000398A0621F9860631E9820631498E0627F
:1053F0001498606200BF00BF0098FFF723FB00BF56
:1054000000BF42F21070A9F8000000BF77E62DE956
:10541000F04104460D46002700BF00BFFFF70EFB1A
:10542000074600BF00BF666A00BF00BF3846FFF7EF
:1054300009FB00BF00BF42F2107028803046BDE873
:10544000F0812DE9F041044688461546002700BF4B
:1054500000BFFFF7F3FA074600BF00BF606A60B9FC
:1054600000BF00BF3846FFF7EDFA00BF00BF42F2B1
:10547000DE7028800020BDE8F081E16A606A884221
:105480000BD900BF00BF3846FFF7DCFA00BF00BFF2
:1054900042F2957028800020EDE7606A401E60624D
:1054A000D4E9080150F8216000BF00BF3846FFF77B
:1054B000C9FA00BF00BF42F2107028803046DAE718
:1054C0002DE9F04704460F4615464FF0000900BF8E
:1054D00000BFFFF7B3FA814600BF00BFE06AC01B00
:1054E000461EE06AB04213D800BF00BF4846FFF72F
:1054F000A9FA00BF00BF42F295702880002005E0A5
:1055000068000020A42F0020504F4F4CBDE8F087CA
:10551000606AB0420BD900BF00BF4846FFF792FA5D
:1055200000BF00BF42F2957028800020E7E7206AA4
:1055300050F8268000BF00BF4846FFF783FA00BF3F
:1055400000BF42F2107028804046D8E72DE9F047AE
:1055500004460E4617464FF0000A00BF00BFFFF793
:105560006DFA824600BF00BFE16A606A88420BD3D1
:1055700000BF00BF5046FFF765FA00BF00BF42F210
:10558000DD703880BDE8F0874FF00008656A08E0FC
:10559000206A50F82590B14502D14FF0010803E090
:1055A0006D1CE06AA842F3D800BFB8F1010F06D124
:1055B000D4E9080150F82100216A41F82500D4E916
:1055C000080140F82160606A401C606200BF00BFB3
:1055D0005046FFF737FA00BF00BF42F21070388024
:1055E00000BFCFE72DE9F84F04460F4616460020CE
:1055F00000904FF0FF3B00BF00BFFFF71FFA009085
:1056000000BF00BFE16A606A88420CD300BF00BFE0
:105610000098FFF717FA00BF00BF42F2DD7030803C
:105620005846BDE8F88F4FF00009656A08E0206A27
:1056300050F82580B84502D14FF0010903E06D1CF8
:10564000E06AA842F3D800BFB9F1010F0FD1E06AB8
:10565000401EA0EB050A00BF00BF0098FFF7F2F95B
:1056600000BF00BF42F2107030805046D9E700BF43
:1056700000BF0098FFF7E6F900BF00BF42F2887054
:1056800030805846CDE7000010B502460B46114663
:10569000002001E0491C401C19B10C780CB1984263
:1056A000F8D310BD30B504464FF0FF312046FFF768
:1056B000EBFF0546284630BD70B504460D4616463C
:1056C0000CB9002070BD0DB90020FBE721462A4629
:1056D000002304E010780870491C521C5B1C21B1A7
:1056E0001AB1107808B1B342F4D301B10AB900205D
:1056F000E8E7B34201D2002008702046E2E770B527
:1057000004460D464FF0FF3229462046FFF7D4FFEE
:105710000646304670BD70B503460C4615460BB9BB
:10572000002070BD0CB90020FBE70DB91846F8E762
:10573000194600E0491C11B108780028FAD109B9CE
:105740000020EEE72246002604E010780870491C8D
:10575000521C761C21B11AB1107808B1AE42F4D3B4
:1057600001B10AB90020DCE7002008701846D8E72C
:1057700070B504460D464FF0FF3229462046FFF72C
:10578000CAFF0646304670BD2DE9F04305460B467C
:105790009446BCF1000F02D10020BDE8F08335B97A
:1057A0000BB90020F9E7187842421046F5E713B923
:1057B0002A781046F1E729461C460F4626467F1CEC
:1057C000761C4FF0000805E0491C641C7F1C761C09
:1057D00008F10108087894F80090484505D1087848
:1057E00018B117B10EB1E045EED3E04501D100206C
:1057F000D3E7087894F80090484505D0087894F8E5
:105800000090A0EB09020BE0087808B9002207E03D
:105810002FB90EB9002203E03078424200E03A7816
:105820001046BAE770B504460D464FF0FF322946E0
:105830002046FFF7A9FF0646304670BD2DE9F74F19
:1058400082B080460E46049818B9002005B0BDE825
:10585000F08FB8F1000F09D10EB90020F6E73078CB
:10586000FFF7FAF907467C422046EFE73EB998F881
:105870000000FFF7F1F905462C462046E6E7C14651
:10588000B246C846C3465646CDF804A0D8460BF1EA
:10589000010B019E701C0190C84699F80000FFF7AB
:1058A000DBF9054656469AF80000FFF7D5F907469A
:1058B0000020009015E009F101090AF1010A0BF13D
:1058C000010B0198401C01900098401C009099F831
:1058D0000000FFF7C1F905469AF80000FFF7BCF990
:1058E0000746BD420BD199F8000040B1BBF1000F53
:1058F00005D0019818B1049900988842DBD3049927
:105900000098884201D10020A0E7BD4201D0EC1BE5
:1059100016E00DB9002413E0BBF1000F0AD1019885
:1059200008B900240CE001990878FFF795F90746BB
:105930007C4205E09BF80000FFF78EF905462C46F7
:10594000204683E770B504460D464FF0FF322946E6
:105950002046FFF773FF0646304670BD30B504465B
:105960000B4615460CB9002030BD0BB90020FBE7F3
:105970002146002201E0491C521C31B1087820B1B7
:105980000878A84201D09A42F5D309B90020EBE784
:105990009A4201D30020E7E70878A84201D000200E
:1059A000E2E70846E0E770B505460C4622464FF0B0
:1059B000FF312846FFF7D2FF0646304670BD2DE97D
:1059C000F04305460E46174615B90020BDE8F083A2
:1059D0000EB90020FAE72C46A6F1010949462046F7
:1059E000FFF752FE804644440CB90020EEE700E089
:1059F000641EAC4202D02078B842F9D12078B84277
:105A000001D00020E2E72046E0E770B505460C46ED
:105A100022464FF0FF312846FFF7D1FF06463046B9
:105A200070BD70B504460D4616460CB9002070BD19
:105A30000BB90020FBE721461A4605E00878A8428A
:105A400000D10E70491C521E19B1087808B1002A05
:105A5000F4D12046EBE7F0B504460D4616464FF06C
:105A6000FF33324629462046FFF7DBFF074638461C
:105A7000F0BD2DE9FF4F06460F4615461EB9002022
:105A800004B0BDE8F08F0FB90020F9E70DB9002090
:105A9000F6E7681C00B101E04FF0FF3003902946A3
:105AA0003046FFF7F1FD804638460399FFF7ECFDDD
:105AB00004460CB93046E3E7444501D90020DFE74E
:105AC00006EB080BBBF1000F01D10020D8E707EB74
:105AD000040BBBF1000F01D10020D1E7A8EB0400BB
