:020000040800F2
:10000000005000202D03000801030008030300082E
:1000100005030008070300080903000800000000AA
:100020000000000000000000000000000B030008BA
:100030000D030008000000000F0300081103000872
:1000400075030008750300087503000875030008B0
:1000500075030008750300087503000875030008A0
:100060007503000875030008750300087503000890
:100070007503000875030008750300087503000880
:100080007503000875030008750300087503000870
:1000900075030008190300087503000875030008BC
:1000A0007503000875030008750300087503000850
:1000B0007503000875030008750300087503000840
:1000C0007503000875030008750300087503000830
:1000D0007503000875030008750300087503000820
:1000E0007503000875030008750300080000000090
:1000F0000000000000000000000000000000000000
:0C01000000000000000000005FF808F1A3
:10010C0010B5054C237833B9044B13B10448AFF345
:10011C0000800123237010BD3C040020000000006F
:10012C008012000808B5034B1BB103490348AFF319
:10013C00008008BD00000000400400208012000870
:10014C0082B00A4B9A6942F020029A619A6902F0D5
:10015C0020020092009A9A6942F004029A619B690B
:10016C0003F004030193019B02B07047001002409E
:10017C0072B6FEE708B50D480D4B036004234360CF
:10018C0000238360C3604FF4403202614FF440128D
:10019C0042610376012242768376C37603774377F6
:1001AC0000F02EF900B908BDFFF7E2FF580400205B
:1001BC000064004000B591B02822002106A800F090
:1001CC0097FF002301930293039304930593012259
:1001DC0006924FF4803307930A9202220D920E93EB
:1001EC004FF4E0130F9306A800F076FC80B90F23B0
:1001FC00019302210291002303934FF48062049235
:10020C00059301A800F09AFE20B911B05DF804FB2B
:10021C00FFF7AEFFFFF7ACFF08B500F0CDF8FFF726
:10022C00C9FFFFF78DFFFFF7A5FFFEE782B00E4B6E
:10023C009A6942F001029A619A6902F001020092F5
:10024C00009ADA6942F08052DA61DB6903F080537C
:10025C000193019B054A536823F0E06343F000735C
:10026C00536002B0704700BF001002400000014014
:10027C0010B586B000230293039304930593026890
:10028C001A4B9A4201D006B010BD03F5D633DA6989
:10029C0042F00072DA61DA6902F000720092009AA0
:1002AC009A6942F004029A619B6903F0040301937A
:1002BC00019B4FF4006302930D4C02A9204600F001
:1002CC00E3FA4FF480530293022303930323059321
:1002DC0002A9204600F0D8FA00221146152000F0A1
:1002EC0079FA152000F0AEFACDE700BF00640040AB
:1002FC0000080140FEE7FEE7FEE7FEE7FEE7704779
:10030C007047704708B500F069F808BD08B5024899
:10031C0000F029F908BD00BF580400207047000008
:10032C00FFF7FCFF0B480C490C4A002302E0D458A1
:10033C00C4500433C4188C42F9D3094A094C002325
:10034C0001E013600432A242FBD300F0ADFEFFF7D4
:10035C0063FF7047000000203C040020CC12000812
:10036C003C04002088040020FEE7000010B5044681
:10037C000E4B18784FF47A73B3FBF0F30C4A1068F9
:10038C00B0FBF3F000F06CFA68B90F2C01D9012026
:10039C000AE0002221464FF0FF3000F01BFA054B1B
:1003AC001C60002000E0012010BD00BF04000020F4
:1003BC00000000200800002008B5074A136843F02D
:1003CC0010031360032000F0F3F90F20FFF7CEFFAA
:1003DC00FFF72CFF002008BD00200240034A1168E3
:1003EC00034B1B780B441360704700BF8004002044
:1003FC0004000020014B1868704700BF80040020E7
:10040C00002800F0A18038B5044690F82030D3B114
:10041C002268136843F001031360FFF7EBFF0546F6
:10042C0023685A6812F0010F10D1FFF7E3FF401B4D
:10043C000A28F5D9636A43F400336362052384F810
:10044C002030012038BDFFF713FFE1E71A6822F0D6
:10045C0002021A60FFF7CEFF054623685A6812F0B5
:10046C00020F0DD0FFF7C6FF401B0A28F5D9636AAF
:10047C0043F400336362052384F820300120E1E764
:10048C00227E012A3DD01A6822F080021A60637E17
:10049C00012B3BD02268136823F040031360A37E2A
:1004AC00012B39D02268136823F020031360E37EFC
:1004BC00012B37D02268136843F010031360237F9D
:1004CC00012B35D02268136823F008031360637F77
:1004DC00012B33D02268136823F004031360A36844
:1004EC00E268134322691343626913436268013A59
:1004FC0021681343CB6100206062012384F8203013
:10050C00A0E71A6842F080021A60C0E722681368FC
:10051C0043F040031360C2E72268136843F02003E2
:10052C001360C4E72268136823F010031360C6E756
:10053C002268136843F008031360C8E72268136845
:10054C0043F004031360CAE70120704770477047FB
:10055C0070477047704770477047704770477047D7
:10056C007047704770472DE9F84F054603685C6982
:10057C00D3F804809F68D3F80CB0D3F810A0D3F84C
:10058C00189014F001063BD017F0010616D001228A
:10059C009A6017F0020F08D117F0040F0CD117F066
:1005AC00080606D04FF4805608E0FFF7CFFF002670
:1005BC0004E0FFF7CEFF01E04FF4006617F4807FF4
:1005CC000DD02B684FF480729A6017F4007F40F0C6
:1005DC00868017F4806F00F0868046F4005617F47E
:1005EC00803F0DD02B684FF480329A6017F4003F97
:1005FC0040F0838017F4802F00F0838046F400468F
:10060C0014F0080F07D01BF0100F04D046F400763E
:10061C002B681022DA6014F0040F02D01BF0080FC4
:10062C0079D114F0020F04D02B68DB6813F0030FA0
:10063C0078D114F0400F07D01AF0100F04D046F404
:10064C0080662B6810221A6114F0200F02D01AF069
:10065C00080F6BD114F0100F04D02B681B6913F02A
:10066C00030F6AD114F4003F02D018F0100F68D1B8
:10067C0014F4803F02D018F0080F69D114F4004F25
:10068C007AD018F0040F74D014F4807F04D019F0D1
:10069C00010F01D046F0010614F4007F04D019F0CC
:1006AC00020F01D046F0020614F4806F04D019F04A
:1006BC00040F01D046F0040614F4006F59D019F061
:1006CC00700956D0B9F1400F65D058D8B9F1200F48
:1006DC005ED0B9F1300F42D146F0200644E02846F6
:1006EC00FFF735FF7BE717F4006F02D046F4804626
:1006FC0075E72846FFF72EFF71E72846FFF728FF1E
:10070C007EE717F4002F02D046F4803678E72846AF
:10071C00FFF721FF74E72B680822DA602846FFF701
:10072C001CFF7EE72846FFF717FF82E72B6808229D
:10073C001A612846FFF713FF8CE72846FFF70EFFD8
:10074C0090E72B6810225A602846FFF709FF8FE7C5
:10075C002B6808225A602846FFF703FF8EE7B9F191
:10076C00100F01D146F008062A68936923F0700334
:10077C0093612B6804225A609EB9BDE8F88FB9F1D9
:10078C00500F0BD0B9F1600FEED146F48076EBE749
:10079C0046F01006E8E746F04006E5E746F080062E
:1007AC00E2E76B6A1E436E622846FFF7DBFEE4E766
:1007BC00074AD36823F4E0631B041B0C000200F40B
:1007CC00E060034343F0BF6343F40033D3607047EE
:1007DC0000ED00E000B5194BDB68C3F30223C3F155
:1007EC00070CBCF1040F28BF4FF0040C03F1040EEE
:1007FC00BEF1060F18D9033B4FF0FF3E0EFA0CFC6E
:10080C0021EA0C0199400EFA03F322EA030319437F
:10081C0000280BDB0901C9B200F1604000F5614012
:10082C0080F800135DF804FB0023E5E700F00F00EF
:10083C000901C9B2024B1954F4E700BF00ED00E006
:10084C0014ED00E0002807DB00F01F024009012333
:10085C009340024A42F82030704700BF00E100E0AC
:10086C000138B0F1807F0BD24FF0E0235861054A7C
:10087C00F02182F823100020986107221A6170473A
:10088C000120704700ED00E070B582B00024A44652
:10089C00A6E0804DAA4210D007D97F4DAA420CD0B9
:1008AC0005F58035AA4208D013E0A5F58015AA42BB
:1008BC0003D005F57025AA4207D18A68002A58D0C2
:1008CC00012A51D04361082403E0A5F58015AA4202
:1008DC00F3D0BEF1FF0F4ED80646BEF1FF0F4CD839
:1008EC004FEA8C0233680F25954023EA050304FA7E
:1008FC0002F2134333604B6813F0805F6ED0674B8A
:10090C009A6942F001029A619B6903F00103019319
:10091C00019B4FEA9C02951C614B53F825600CF02F
:10092C0003039D000F23AB4026EA03065D4B984260
:10093C0029D003F58063984200F08E8003F5806324
:10094C00984200F08B8003F58063984219D0042301
:10095C001AE0CC68BDE7CC680434BAE7CC6808343C
:10096C00B7E7CC680C34B4E703610824B1E7002482
:10097C00AFE70424ADE7061DAFE7ACF10802920027
:10098C00B0E7032300E00023AB4033430232444D75
:10099C0045F822304B6813F4801F61D0424A9368AB
:1009AC0043EA0E0393604B6813F4001F5ED03E4A7B
:1009BC00D36843EA0E03D3604B6813F4003F5BD05B
:1009CC00394A536843EA0E0353604B6813F4803F73
:1009DC0058D0354A136843EA0E0313600CF1010C2E
:1009EC000A6832FA0CF353D0012303FA0CF302EA2F
:1009FC00030E33EA0202F1D14A68122A3FF649AFDC
:100A0C00122A3FF666AF01A555F822F0C708000878
:100A1C005F090008690900087B090008DF08000865
:100A2C00DF080008DF080008DF080008DF080008FE
:100A3C00DF080008DF080008DF080008DF080008EE
:100A4C00DF080008DF080008DF080008DF080008DE
:100A5C00630900086F090008012395E7022393E757
:100A6C00114A936823EA0E0393609CE70E4AD368FD
:100A7C0023EA0E03D3609FE70B4A536823EA0E0365
:100A8C005360A2E7084A136823EA0E031360A5E734
:100A9C0002B070BD000022100000311000100240A6
:100AAC0000000140000801400004014082B0084BE6
:100ABC001B68084AA2FB03235B0A00FB03F30193A8
:100ACC0000BF019B5A1E0192002BF9D102B0704756
:100ADC0000000020D34D6210002800F0F18170B5A9
:100AEC0082B00446036813F0010F2CD0994B5B685D
:100AFC0003F00C03042B1DD0964B5B6803F00C0326
:100B0C00082B12D06368B3F5803F41D0002B55D130
:100B1C0003F1804303F504331A6822F480321A601F
:100B2C001A6822F480221A6037E08A4B5B6813F44F
:100B3C00803FE7D0874B1B6813F4003F03D06368FA
:100B4C00002B00F0BF81236813F0020F75D0814B8E
:100B5C005B6813F00C0F5FD07E4B5B6803F00C03EB
:100B6C00082B54D02369002B00F08A807A4B012289
:100B7C001A60FFF73FFC0546764B1B6813F0020F1B
:100B8C0075D1FFF737FC401B0228F5D903209EE1F5
:100B9C00704A136843F480331360636843B3FFF700
:100BAC0029FC05466B4B1B6813F4003FCBD1FFF7B8
:100BBC0021FC401B6428F5D9032088E1B3F5A02F54
:100BCC0009D0644B1A6822F480321A601A6822F435
:100BDC0080221A60E1E703F18043A3F53C331A68E5
:100BEC0042F480221A601A6842F480321A60D4E708
:100BFC00FFF700FC0546574B1B6813F4003FA2D0CF
:100C0C00FFF7F8FB401B6428F5D903205FE1514B3B
:100C1C005B6813F4803FA5D14E4B1B6813F0020F99
:100C2C0003D02369012B40F04F814A4A136823F00B
:100C3C00F803616943EAC1031360236813F0080FDA
:100C4C0033D0A369002B5CD0434B0122C3F8802422
:100C5C00FFF7D0FB05463F4B5B6A13F0020F21D127
:100C6C00FFF7C8FB401B0228F5D903202FE1394AB6
:100C7C00136823F0F803616943EAC1031360DCE7EE
:100C8C00354B00221A60FFF7B5FB0546314B1B684C
:100C9C0013F0020FD1D0FFF7ADFB401B0228F5D9A2
:100CAC00032014E10120FFF701FF236813F0040F68
:100CBC0000F09680274BDB6913F0805F34D1254B15
:100CCC00DA6942F08052DA61DB6903F080530193F8
:100CDC00019B0125214B1B6813F4807F26D0E36810
:100CEC00012B3DD0002B53D103F1804303F504338A
:100CFC001A6A22F001021A621A6A22F004021A62BB
:100D0C0033E0154B0022C3F88024FFF773FB054634
:100D1C00104B5B6A13F0020FC7D0FFF76BFB401B45
:100D2C000228F5D90320D2E00025D3E70B4A13683B
:100D3C0043F480731360FFF75DFB0646074B1B689B
:100D4C0013F4807FCBD1FFF755FB801B6428F5D9BA
:100D5C000320BCE000100240000042420070004042
:100D6C005F4A136A43F001031362E36833B3FFF77E
:100D7C0041FB06465A4B1B6A13F0020F2FD1FFF7AB
:100D8C0039FB801B41F288339842F3D903209EE053
:100D9C00052B09D0524B1A6A22F001021A621A6A08
:100DAC0022F004021A62E0E74D4B1A6A42F0040288
:100DBC001A621A6A42F001021A62D6E7FFF71AFBAE
:100DCC000646474B1B6A13F0020F08D0FFF712FBC5
:100DDC00801B41F288339842F3D9032077E0E5B9C0
:100DEC00E369002B72D03E4A526802F00C02082ACA
:100DFC0056D0022B17D03B4B00221A66FFF7FAFA9B
:100E0C000446374B1B6813F0007F47D0FFF7F2FA0C
:100E1C00001B0228F5D9032059E0314AD36923F08D
:100E2C008053D361DCE72F4B00221A66FFF7E2FAFE
:100E3C0005462B4B1B6813F0007F06D0FFF7DAFA40
:100E4C00401B0228F5D9032041E0236AB3F5803F0B
:100E5C001AD023494B6823F47413226A606A024344
:100E6C0013434B601F4B01221A66FFF7C3FA04466B
:100E7C001B4B1B6813F0007F0ED1FFF7BBFA001B56
:100E8C000228F5D9032022E0154A536823F40033D5
:100E9C00A1680B435360DCE7002018E0002016E04B
:100EAC00012B16D00E4B5B6803F48031226A914201
:100EBC0011D103F47013626A93420ED1002006E044
:100ECC0001207047012002E0012000E0002002B068
:100EDC0070BD0120FBE70120F9E70120F7E700BF17
:100EEC0000100240000042420F4B5B6803F00C0202
:100EFC00082A01D00D487047C3F383420C49885C23
:100F0C0013F4803F0BD0084B5B68C3F34043094A92
:100F1C00D35C064A02FB00F0B0FBF3F07047064BC3
:100F2C0003FB00F0704700BF0010024000127A0073
:100F3C00A8120008B812000800093D00002800F0B3
:100F4C00A08070B50D460446524B1B6803F0070396
:100F5C008B420BD24F4A136823F007030B431360E9
:100F6C00136803F007038B4240F08D80236813F065
:100F7C00020F17D013F0040F04D0474A536843F400
:100F8C00E0635360236813F0080F04D0424A53689F
:100F9C0043F460535360404A536823F0F003A16854
:100FAC000B435360236813F0010F31D06368012B9E
:100FBC0020D0022B25D0384A126812F0020F64D0D0
:100FCC0035494A6822F0030213434B60FFF712FACB
:100FDC000646314B5B6803F00C036268B3EB820F7F
:100FEC0016D0FFF707FA801B41F288339842F0D9EC
:100FFC00032045E0284A126812F4003FE0D101209A
:10100C003EE0254A126812F0007FD9D1012037E06A
:10101C00204B1B6803F00703AB420AD91D4A136827
:10102C0023F007032B431360136803F00703AB4251
:10103C002DD1236813F0040F06D0174A536823F4FC
:10104C00E063E1680B435360236813F0080F07D08B
:10105C00114A536823F46053216943EAC103536076
:10106C00FFF742FF0C4B5B68C3F303130B4AD35CD3
:10107C00D8400B4B18600B4B1868FFF777F9002022
:10108C0070BD012070470120FAE70120F8E701202C
:10109C00F6E700BF00200240001002409812000842
:1010AC00000000200800002070B50D4E0D4D761B81
:1010BC00B61006D0002455F8043B01349847A642DC
:1010CC00F9D1094E094D00F0D5F8761BB61006D0B3
:1010DC00002455F8043B01349847A642F9D170BD61
:1010EC00C0120008C0120008C8120008C012000884
:1010FC00830730B548D0541E002A3FD00346CAB2ED
:10110C0001E0013C3AD303F8012B9D07F9D1032CE4
:10111C002DD9CDB245EA05250F2C45EA054536D922
:10112C00A4F1100222F00F0C03F1200EE6444FEA5A
:10113C00121C03F1100242E9045542E90255103227
:10114C007245F8D10CF1010214F00C0F03EB0212F2
:10115C0004F00F0C13D0ACF1040323F0030304339D
:10116C00134442F8045B9342FBD10CF003042CB102
:10117C00CAB21C4403F8012B9C42FBD130BD64461F
:10118C001346002CF4D1F9E703461446BFE71A4680
:10119C00A446E0E7024B13B1024800F005B87047D3
:1011AC0000000000C1110008002301461A46184631
:1011BC0000F01AB838B5084B084D5B1B9C1007D0D3
:1011CC00043B1D44013C55F804399847002CF9D1D7
:1011DC00BDE8384000F054B8CC120008C812000822
:1011EC00704700BF704700BF2DE9F047DFF87CA0C7
:1011FC000646DAF8000098460F469146FFF7F0FFD6
:10120C001B4B1B68D3F8484124B365681F2D26DCA3
:10121C005EB96B1C0235DAF80000636044F8257087
:10122C00FFF7E0FF0020BDE8F087012304EB850108
:10123C00C1F88890D4F88821AB401A43022EC4F828
:10124C008821C1F80881E4D1D4F88C211343C4F867
:10125C008C31DEE703F5A674C3F84841D5E7DAF81C
:10126C000000FFF7BFFF4FF0FF30DCE73804002031
:10127C00BC120008F8B500BFF8BC08BC9E4670470D
:0C128C00F8B500BFF8BC08BC9E467047D7
:10129800000000000000000001020304060708091E
:1012A80002030405060708090A0B0C0D0E0F10109F
:0812B8000102000010000020FB
:0812C000A11100083101000832
:0412C8000D0100080C
:1012CC0000127A0001000000100000000000000075
:1012DC0000000000FC02002064030020CC0300206E
:1012EC0000000000000000000000000000000000F2
:1012FC0000000000000000000000000000000000E2
:10130C0000000000000000000000000000000000D1
:10131C0000000000000000000000000000000000C1
:10132C0000000000000000000000000000000000B1
:10133C0000000000000000000000000000000000A1
:10134C000000000000000000000000000000000091
:10135C000000000000000000000000000000000081
:10136C000000000000000000000000000000000071
:10137C000000000000000000010000000000000060
:10138C000E33CDAB34126DE6ECDE05000B00000025
:10139C000000000000000000000000000000000041
:1013AC000000000000000000000000000000000031
:1013BC000000000000000000000000000000000021
:1013CC000000000000000000000000000000000011
:0C16FC000000000000000000840400203A
:040000050800032DBF
:00000001FF
